:100000000C9446000C946A080C9465000C946500EE
:100010000C9465000C9465000C9465000C946500CC
:100020000C9465000C9465000C9465000C946500BC
:100030000C9465000C943E040C9465000C946500CF
:100040000C9465000C9465000C9465000C9465009C
:100050000C9465000C9465000C9465000C9465008C
:100060000C9465000C9465000C9465000C9465007C
:100070000C9465000C9465000C9465000C9465006C
:100080000C9465000C9465000C94650011241FBE4F
:10009000CFEFD0E4DEBFCDBF11E0A0E0B1E0E6E3FA
:1000A000FEE100E00BBF02C007900D92A038B1073F
:1000B000D9F719E0A0E8B1E001C01D92A83EB10750
:1000C000E1F70E9494080C94190F0C940000FC01B5
:1000D0002081213009F477C00CF45BC02230B1F1EB
:1000E000233039F421E02093F5012093F40110929C
:1000F000F30120910F0230911002409180015527A9
:1001000047FD509524173507A4F522E0FC01208314
:1001100080911102811137C082B19091F40199232D
:1001200009F44BC0846082B982B19091F5019923A2
:1001300009F441C0886082B982B19091F30199239A
:10014000C1F1806182B980E090E008951092F501DC
:1001500021E02093F4012093F30120910F023091CC
:10016000100240918001552747FD5095241735070F
:1001700064F2421753071CF523E0FC0120838091B1
:100180001102882349F212981398149880E090E0A5
:1001900008952111AECF40910F025091100240936B
:1001A00080011092F5011092F4011092F3019A016E
:1001B000A6CF8F7EC7CF877FBECF8B7FB4CF21E006
:1001C000FC012083A5CF1092F5011092F40110924A
:1001D000F30120910F0230911002409180018FCFE6
:1001E000CF93DF938091820190918301892BD1F18C
:1001F000E2E1F2E0C0E0D0E09091E20904C0809139
:10020000C000807231F49130D1F78091C8008072C3
:10021000D1F321919130F9F08091C00085FFFCCF9E
:100220002093C600219620918201309183012150B4
:1002300031093093830120938201232BE9F6AE012B
:10024000BE016E5E7D4F82E192E00E94C20ECE0141
:10025000DF91CF9108958091C80085FFFCCF209356
:10026000CE00E0CF62E172E040E050E0C0E0D0E0DC
:1002700082E192E00E94C20ECE01DF91CF910895FB
:10028000FC0120812223F9F0213039F0222301F1F1
:10029000213081F080E090E00895109211022091C9
:1002A000F20124361CF42F5F2093F2012091E6091D
:1002B000211118C02091F201263064F3FC01108254
:1002C00080E090E0089521E0209311021092F20165
:1002D0002091E6092223F1F221E0FC01208380E055
:1002E00090E008951092F20180E090E0089521E0FE
:1002F00030E0062E01C0220F0A94EAF7411104C033
:1003000020952823822F0895282B822F089521E0FD
:1003100030E0062E01C0220F0A94EAF782230895E6
:100320001816190684F440E050E027E033E000009E
:100330002150310921153105D1F74F5F5F4F481723
:10034000590799F708950895289888B9299A0000BF
:10035000299887E093E0000001970097E1F787E094
:1003600093E0000001970097E1F70895CF93DF93A2
:10037000EC018881882371F0882329F080E090E0E7
:10038000DF91CF91089581E0888380E090E0DF9154
:10039000CF91089581E00E94A4018881EDCF81E092
:1003A0000C94A40124E630E087E093E0000001977C
:1003B0000097E1F72150310921153105A9F788E3AC
:1003C0000E94A40186E00E94A4018FE00E94A40183
:1003D00081E00E94A4018CE00E94A4012AE030E0A8
:1003E00087E093E0000001970097E1F72150310981
:1003F00021153105A9F70895289A88B9299A00008E
:10040000299887E093E0000001970097E1F70895AD
:10041000813118F081550C94A40181580C94A401E9
:100420001F93CF93DF93FB019081992369F0EB0138
:1004300001C0812F11E0180F0E94080289910E94CB
:10044000FC0188818111F5CFDF91CF911F91089533
:100450001F93CF93DF93EC018881882309F477C041
:10046000813049F0882309F465C080E090E0DF9195
:10047000CF911F9108958091E609811186C06FE5A3
:1004800071E080E10E9410026AE271E081E00E9466
:10049000100282E80E94A401809101018A3008F0D4
:1004A0007FC0805D0E94FC01809102018A3008F0CB
:1004B00073C0805D0E94FC016DE271E081E10E94E9
:1004C000100282E092E00E941C0C0E945C0DDC0194
:1004D000CB019093100280930F024AE050E068EF46
:1004E00071E00E94D40E86E18093F70185EC0E94B2
:1004F000A4018091F801882379F010E00E94FC01AA
:1005000087E1810F8093F7011F5FE12FF0E0E85052
:10051000FE4F80818111F2CF63E371E088E10E9498
:10052000100288EC0E94A4018FED0E94FC018881DA
:1005300081119BCF80910D02833308F496CF81E027
:10054000888380E090E0DF91CF911F9108958DE145
:1005500091E09093E4098093E30980910D02833345
:1005600080F010920D0240E062E270E082E092E0E2
:100570000E942B0C61E082E092E00E94610C888175
:1005800071CF8F5F80930D02EECF8FE80E94A401A0
:1005900080E00E94FC0178CF8DE20E94FC018CCFAC
:1005A0008DE20E94FC0180CFEF92FF921F93CF93C8
:1005B000DF9300D0CDB7DEB7883040F00F900F90BA
:1005C000DF91CF911F91FF90EF900895880F880FD2
:1005D000880F805C69837A830E94A4016981E62E7A
:1005E0007A81F72E18E0F70181917F010E94FC01CA
:1005F0001150C9F70F900F90DF91CF911F91FF908D
:10060000EF9008958F929F92AF92BF92CF92DF9218
:10061000EF92FF920F931F93CF93DF936C017B01B7
:100620006115710509F43FC0C0E0D0E000E010E0C2
:1006300010C04F5F5F4F6F4F7F4F19964D935D9383
:100640006D937C931C970F5F1F4FE8010E151F05DC
:1006500051F1CC0FDD1FCC0DDD1DA881B98119969C
:100660004D915D916D917C911C9715968D909D900B
:10067000AD90BC901897481559056A057B05C8F2DE
:100680001D96ED91FC911E97CD010995A881B98128
:1006900019961D921D921D921C921C9741E050E0EC
:1006A00060E070E0CACFDF91CF911F910F91FF9072
:1006B000EF90DF90CF90BF90AF909F908F90089574
:1006C000AF92BF92CF92DF92EF92FF920F931F9360
:1006D000CF93DF937C018B016115710509F43FC055
:1006E000DC01ED91FC9161307105E1F1C180D280B6
:1006F000A380B48081E090E0C1E0D0E0FC01EE0F87
:10070000FF1FEE0DFF1D0190F081E02D5181428110
:1007100033812481652F742F832F922F9601A50199
:100720000E947E0E611571058105910539F05C2DE1
:100730004D2D3A2D2B2D6B015C01ECCF2196CE0176
:10074000C017D107D9F6C601DF91CF911F910F9144
:10075000FF90EF90DF90CF90BF90AF90089580E032
:1007600090E0F2CF81819281EFCF4F925F926F92B2
:100770007F92AF92BF92CF92DF92EF92FF920F9350
:100780001F93CF93DF936C017B010E9460035C0198
:10079000E114F10439F12C01612C712CE0E0F0E05E
:1007A000C0E0D0E0EE0FFF1FEC0DFD1DA081B18178
:1007B0001C9200811181F801618172818381948191
:1007C000A30192010E947E0EF801258336834783A0
:1007D000508721873287438754872196FE01CE15A3
:1007E000DF0501F7C501DF91CF911F910F91FF90B8
:1007F000EF90DF90CF90BF90AF907F906F905F9021
:100800004F90089560930301709304018093050154
:100810009093060160938401709385018093860113
:100820009093870108958BE0809381008DE790E09D
:10083000909389008093880082E080936F001092EB
:100840008500109284008091030190910401A09191
:100850000501B09106018093840190938501A093D6
:100860008601B09387018FB780688FBF089510927B
:100870008100089581E08093880108951F920F926E
:100880000FB60F9211248F939F93AF93BF938091D4
:10089000840190918501A0918601B0918701019713
:1008A000A109B1098093840190938501A0938601E9
:1008B000B0938701892B8A2B8B2B99F481E080934D
:1008C00088018091030190910401A0910501B091EC
:1008D00006018093840190938501A0938601B093D3
:1008E0008701BF91AF919F918F910F900FBE0F9095
:1008F0001F901895813081F08091C10088618093AC
:10090000C1008091C20086608093C20089E180931B
:10091000C4001092C50008958091C9008861809339
:10092000C9008091CA0086608093CA0089E18093E3
:10093000CC001092CD000895813021F08091C0004C
:10094000807208958091C80080720895813021F0EE
:100950008091C000807408958091C80080740895CB
:10096000813021F08091C000807808958091C80086
:1009700080780895813069F08091C00087FF15C0AC
:100980008091C60080930E028091C00087FDF8CF51
:1009900008958091C80087FF09C08091CE008093A0
:1009A0000E028091C80087FDF8CF08950895613048
:1009B00039F09091C00095FFFCCF8093C600089558
:1009C0009091C80095FFFCCF8093CE0008958130B0
:1009D00039F08091C00087FFFCCF8091C600089558
:1009E0008091C80087FFFCCF8091CE00089580934E
:1009F000E2090C947A04CF93DF93FC01019000206C
:100A0000E9F73197E81BF90B2091820130918301BE
:100A1000EF01C20FD31FC13D47E0D4075CF4AF0123
:100A2000BC01C9018E5E9D4F0E94B90ED093830117
:100A3000C0938201DF91CF910895CF93DF93CDB71B
:100A4000DEB7C456D1090FB6F894DEBF0FBECDBFD6
:100A5000AB01BE016F5F7F4F0E94D40ECE010196A5
:100A60000E94FB04CC59DF4F0FB6F894DEBF0FBED7
:100A7000CDBFDF91CF910895CF938091000187FD85
:100A800022C08F5F809300018430ECF0CFEFC093E1
:100A9000000185E391E00E94FB0410928101909196
:100AA000800187E69802812D11248595859597FD13
:100AB0008395809301012AE0829F901911249093DD
:100AC0000201C093000180E090E0CF91089584B1CD
:100AD000806B84B9269881E58CBD089580E484B943
:100AE00081EC8CBD08958EBD0DB407FEFDCF8EB593
:100AF0000895EF92FF920F931F93CF93DF932C985B
:100B00008EBD0DB407FEFDCF8EB52C9A12161306BE
:100B1000BCF4EB018A017B01E20EF31E87E491E055
:100B20000E94FB042C9889918EBD0DB407FEFDCF69
:100B30008EB5F80181938F012C9ACE15DF0571F7E0
:100B4000DF91CF911F910F91FF90EF9008952C9816
:100B50008EBD0DB407FEFDCF8EB51416150664F4D8
:100B6000FB01460F571F81918EBD0DB407FEFDCFCF
:100B70008EB5E417F507B9F72C9A0895CF93DF9354
:100B80001F92CDB7DEB7698341E050E0BE016F5FD1
:100B90007F4F0E94A7050F90DF91CF9108952C9869
:100BA0008EBD0DB407FEFDCF8EB51416150664F488
:100BB000FB01460F571F1EBC0DB407FEFDCF8EB5BF
:100BC0008193E417F507B9F72C9A089552985A9A29
:100BD000E89A82E080936900789408950F931F93B8
:100BE000CF93DF93CDB7DEB7C556D1090FB6F894D2
:100BF000DEBF0FBECDBF00E010E041E050E0BE011F
:100C00006B597F4F802F0E94CF0585E591E00E94B0
:100C1000FB044AE050E0BE016F5F7F4FC8010E94B5
:100C2000D40ECE0101960E94FB048EE591E00E9455
:100C3000FB04A6968FADA69740E150E0BE016F5F22
:100C40007F4F90E00E94D40ECE0101960E94FB04DB
:100C500082E591E00E94FB040F5F1F4F0A301105EF
:100C600061F682E591E00E94FB04CB59DF4F0FB69D
:100C7000F894DEBF0FBECDBFDF91CF911F910F91D2
:100C800008951F93CF93DF93CDB7DEB72C970FB6A0
:100C9000F894DEBF0FBECDBF86E5898384E38A83E7
:100CA00082E18B835B988AE08C8741E050E0BE0153
:100CB000645F7F4F80E20E94A70587E093E0000019
:100CC00001970097E1F787E093E000000197009714
:100CD000E1F78FE38B8741E050E0BE01655F7F4F16
:100CE00080E20E94A70511E01A8741E050E0BE01B2
:100CF000665F7F4F82E20E94A70584E0898741E01A
:100D000050E0BE01675F7F4F81E30E94A705188610
:100D100041E050E0BE01685F7F4F81E20E94A7057D
:100D200087E08F8341E050E0BE01695F7F4F85E23D
:100D30000E94A7051E8341E050E0BE016A5F7F4F1D
:100D400083E20E94A70586E08D8341E050E0BE016A
:100D50006B5F7F4F86E20E94A70540E050E060E0B5
:100D600070E082EE0E94A70580E78C8341E050E0AE
:100D7000BE016C5F7F4F87E20E94A70543E050E011
:100D8000BE016F5F7F4F8AE20E94A7055B9A2C9697
:100D90000FB6F894DEBF0FBECDBFDF91CF911F918C
:100DA00008958091C00087FF0EC08091C00087FF2A
:100DB000FCCF8091C6008093F6018D3639F08237E2
:100DC00011F40E94EE0580E090E008950E94410633
:100DD00080E090E00895FF920F931F93CF93DF93ED
:100DE000CDB7DEB72B970FB6F894DEBF0FBECDBFE1
:100DF000F82E8B015B988AE08A8741E050E0BE01C3
:100E0000665F7F4F80E20E94A70527E033E0000085
:100E10002150310921153105D1F727E033E00000D9
:100E20002150310921153105D1F78EE3898741E041
:100E300050E0BE01675F7F4F80E20E94A7051886E1
:100E400041E050E0BE01685F7F4F81E20E94A7054C
:100E500081E08F8341E050E0BE01695F7F4F83E214
:100E60000E94A7051E8241E050E0BE016A5F7F4FED
:100E700084E20E94A70587E08D8341E050E0BE0137
:100E80006B5F7F4F85E20E94A70586E08C8341E07F
:100E900050E0BE016C5F7F4F86E20E94A70540E0F4
:100EA00050E060E070E081EE0E94A70580E78B8350
:100EB00041E050E0BE016D5F7F4F87E20E94A705D1
:100EC000FA8241E050E0BE016E5F7F4F80EA0E94EF
:100ED000A70543E050E0B80180E30E94A7055B9AB4
:100EE00087E093E0000001970097E1F787E093E047
:100EF000000001970097E1F741E050E0BE01655F17
:100F00007F4F87E00E94CF0580E6898341E050E073
:100F1000BE016F5F7F4F87E20E94A7052B960FB639
:100F2000F894DEBF0FBECDBFDF91CF911F910F911F
:100F3000FF900895109281019091800187E69802B8
:100F4000812D11248595859597FD839580930101C9
:100F50002AE0829F90191124909302018FEF8093D1
:100F6000000108951F93CF93DF93CDB7DEB7C4562A
:100F7000D1090FB6F894DEBF0FBECDBF90ED980F2C
:100F80009A3048F4109200018F709091810199235A
:100F900071F09130A9F086E0CC59DF4F0FB6F8948C
:100FA000DEBF0FBECDBFDF91CF911F91089580931B
:100FB00001018FEF8093020181E080938101EBCFEB
:100FC0008093020190910101182F2AE0929F100D49
:100FD00011241092810184EC810F8F31E8F081E6B9
:100FE00091E00E94FB04109281019091800187E6BC
:100FF0009802812D11248595859597FD8395809381
:1010000001012AE0829F90191124909302018FEF31
:101010008093000185E0C0CF8AE591E00E94FB0447
:101020004AE050E0BE016F5F7F4F812F90E00E9449
:10103000D40ECE0101960E94FB0482E591E00E944D
:10104000FB04109380018FEF8093000186E0A4CF12
:10105000CF93DF93CDB7DEB729970FB6F894DEBFF5
:101060000FBECDBF41E050E0BE01675F7F4F87E01C
:101070000E94CF05898586FF24C044E050E0BE0170
:101080006F5F7F4F81E60E94CF0580E7888741E050
:1010900050E0BE01685F7F4F87E20E94A7058C8108
:1010A0000E94B20799EC9D8397E89E8393E99F8302
:1010B00044E050E0BE016B5F7F4F0E94EB060E9450
:1010C000410629960FB6F894DEBF0FBECDBFDF9163
:1010D000CF9108951F920F920FB60F9211240BB665
:1010E0000F922F933F934F935F936F937F938F93C1
:1010F0009F93AF93BF93EF93FF930E94280881E0E3
:101100008CBBFF91EF91BF91AF919F918F917F9198
:101110006F915F914F913F912F910F900BBE0F9068
:101120000FBE0F901F901895CF93DF93CDB7DEB70A
:1011300066970FB6F894DEBF0FBECDBF8FEF87B9AD
:1011400018B883E084B915B88DEF81B912E012B9EF
:101150008AE08AB985E08BB98EE0E7E0F1E0DE0154
:10116000119601900D928A95E1F782E390E0A0E05C
:10117000B0E08093E4019093E501A093E601B09381
:10118000E70180EF90E09093F1018093F00188EE09
:1011900093E0A0E0B0E08093D5019093D601A093B6
:1011A000D701B093D8018CE395E09093E20180934E
:1011B000E10144E650E060E070E04093C6015093E6
:1011C000C7016093C8017093C90181ED96E09093C7
:1011D000D3018093D20184EF91E0A0E0B0E080934E
:1011E000B7019093B801A093B901B093BA0126EB6F
:1011F00031E03093C4012093C3014093A801509380
:10120000A9016093AA017093AB0128E232E0309308
:10121000B5012093B4018093990190939A01A09312
:101220009B01B0939C0127E630E03093A601209308
:10123000A50180938A0190938B01A0938C01B093B8
:101240008D0180E491E0909397018093960184B1A1
:10125000806B84B9269881E58CBD0E944106529826
:101260005A9AE89A1093690078941092E20980E003
:101270000E947A0481E791E00E94FB0467E070E03D
:10128000CE0101960E94B503A0E0B0E08093030177
:1012900090930401A0930501B09306018BE0809325
:1012A00081008DE790E0909389008093880082E030
:1012B00080936F001092850010928400809103014A
:1012C00090910401A0910501B091060180938401E1
:1012D00090938501A0938601B09387018FB78068B2
:1012E0008FBF88E0E5E1F1E0DE011F9601900D92ED
:1012F0008A95E1F7BE01615F7F4F80E00E94D402D2
:101300000E94D20180B182708093E60967E070E0AC
:10131000CE0101960E940203809188018823E1F3A7
:1013200010928801EFCF0F931F93CF93FC0170E0D1
:1013300020E030E081E090E0A085B185CE9142854B
:101340004F708C0102C0000F111F4A95E2F7C02BAD
:10135000CC93A085B185CC9142854F708C0102C0A1
:10136000000F111F4A95E2F7A80140954C234C93BA
:1013700012E01A95F1F700C0AC01022E02C0440F32
:10138000551F0A94E2F746235723452B91F0A08579
:10139000B185CC9142854F708C0102C0000F111FA6
:1013A0004A95E2F7A801C02BCC935E914095452366
:1013B0004C9310EA1A95F1F7A085B185CC9142853E
:1013C0004F708C0102C0000F111F4A95E2F7A8016F
:1013D000C02BCC935E91409545234C932F5F3F4F9C
:1013E0002830310509F0A8CFCF911F910F910895B2
:1013F000CF93DF93FC0160E070E080E041E050E0DB
:10140000A085B1859E9122852F70EA0102C0CC0F84
:10141000DD1F2A95E2F79C2B9C93A085B1859C91BA
:1014200022852F70EA0102C0CC0FDD1F2A95E2F75A
:101430009E01209529232C93D2E0DA95F1F700C084
:10144000A085B1859C9122852F70EA0102C0CC0F46
:10145000DD1F2A95E2F79E019C2B9C939E9120957F
:1014600029232C93DAE1DA95F1F700C0A085B18544
:1014700012972C9130E020953095A285AF70EA014B
:1014800002C0CC0FDD1FAA95E2F72C233D23A1E07B
:10149000B0E01216130614F4A0E0B0E0062E01C06E
:1014A000AA0F0A94EAF78A2BD5E8DA95F1F700003B
:1014B0006F5F7F4F6830710509F0A2CFDF91CF9148
:1014C0000895FC01A085B1854C9122852F702F5F76
:1014D00081E090E0BC0102C0660F771F2A95E2F719
:1014E000462B4C93A085B1854E9122852F70BC016F
:1014F00002C0660F771F2A95E2F7462B4C93A08512
:10150000B1853C9122852F7001C0880F2A95EAF79A
:10151000809583238C9389EC93E00197F1F700C0C9
:101520000000A085B1852C9132853F7081E090E06C
:1015300001C0880F3A95EAF7282B2C9390E59A95ED
:10154000F1F7A085B1854C9122852F7081E090E064
:10155000BC0102C0660F771F2A95E2F79B01462B5C
:101560004C933E91209523232C93A085B18512970F
:101570002C9130E02095309542854F7002C0880F45
:10158000991F4A95E2F72823392381E012161306A2
:101590003CF4EDE8F3E03197F1F700C00000089566
:1015A00080E0EDE8F3E03197F1F700C00000089526
:1015B0009F92AF92BF92CF92DF92EF92FF920F93E2
:1015C0001F93CF93DF93CDB7DEB727970FB6F8946D
:1015D000DEBF0FBECDBF7C010E94610A982E811133
:1015E00013C0892D27960FB6F894DEBF0FBECDBF6E
:1015F000DF91CF911F910F91FF90EF90DF90CF90EF
:10160000BF90AF909F90089563E3C7010E94930934
:10161000C7010E94F809F7018783118212821382A1
:101620001482158216828E010F5F1F4F68015E01C2
:10163000F8E0AF0EB11CC7010E94F809F8018193D0
:101640008F01EA15FB05B9F7F7012181328143814A
:10165000548165817681F801A29180E090E008E0F4
:101660000E94A00E2A2BCE16DF06B1F7F7012183C8
:1016700032834383548365837683C7010E94F809CC
:10168000F7018083AECFCF93DF93EC017987688732
:101690004F708A85807F842B8A87CE010E94610AE1
:1016A000811104C080E0DF91CF910895CE01DF91D8
:1016B000CF910C94D80A1F93CF93DF93EC010E9433
:1016C000610A182F882341F06CECCE010E94930927
:1016D00064E4CE010E949309812FDF91CF911F9185
:1016E0000895CF92DF92EF92FF920F931F93CF93C3
:1016F000DF93EC010E94F80981110DC06DEC7CE0D4
:101700008FE194E4DF91CF911F910F91FF90EF90C3
:10171000DF90CF900895CE010E94610A811105C02B
:1017200060E070E08FE793E4EDCF6CECCE010E94B7
:1017300093096EEBCE010E949309CE010E94F80935
:10174000182FCE010E94F809612F772767FD709549
:10175000607F7727759567957595679575956795FA
:101760007595679520E1829FC0011124682B792B24
:10177000882777FD8095982F0E948F0D6B017C0143
:101780007A8572957F701F70812F992787FD9095BC
:1017900040E050E060E0272FC1E0D0E0A4E0B0E0FE
:1017A0000EC09D01201B310B01C0EE0F2A95EAF7F8
:1017B0006E2B4F5F5F4F272F241B2F3FA9F0022F67
:1017C000112707FD1095FE0102C0EE0FFF1F2A959D
:1017D000E2F79F0128233923E1E0F0E01216130617
:1017E00004F3E0E0F0E0DDCF6623B9F0772767FD92
:1017F0007095872F972F0E948F0D9B01AC0160E0A1
:1018000070E080E89FE30E94F40C9B01AC01C701EB
:10181000B6010E94900C6B017C0126E636E646EE8E
:101820005FE3C701B6010E941B0E20E030E040E0FC
:1018300052E40E94900C66CFCF93DF93EC010E949C
:101840005B0BCE010E94F8098823D9F3CE01DF910A
:10185000CF910C94710B1F93CF93DF93EC010E94F7
:10186000430B811106C010E0812FDF91CF911F91B2
:101870000895CE010E94610A182F8823A1F36CEC11
:10188000CE010E9493096EEBCE010E949309CE0116
:101890000E94F809CE010E94F809CE010E94F809C1
:1018A000CE010E94F809CE010E94F8098076869543
:1018B0009A859F70982B9A87812FDF91CF911F91E6
:1018C00008950F931F93CF93DF93EC01062F0E948F
:1018D000610A182F8823E9F06CECCE010E9493096D
:1018E0006EE4CE010E94930960E0CE010E9493094C
:1018F00060E0CE010E949309602F6295660F607EC2
:10190000CE010E9493090295007F8A858F70802BFB
:101910008A87812FDF91CF911F910F9108955058A1
:10192000BB27AA270ED04DC13ED130F043D120F0C5
:1019300031F49F3F11F41EF433C10EF4E095E7FB40
:1019400029C1E92F4FD180F3BA17620773078407C3
:10195000950718F071F49EF567C10EF4E0950B2E13
:10196000BA2FA02D0B01B90190010C01CA01A001F1
:101970001124FF27591B99F0593F50F4503E68F14C
:101980001A16F040A22F232F342F4427585FF3CF8D
:10199000469537952795A795F0405395C9F77EF45E
:1019A0001F16BA0B620B730B840BBAF09150A1F0A7
:1019B000FF0FBB1F661F771F881FC2F70EC0BA0F2D
:1019C000621F731F841F48F4879577956795B795B5
:1019D000F7959E3F08F0B3CF9395880F08F09927AD
:1019E000EE0F9795879508950CD0EBC0E3D040F0AB
:1019F000DAD030F021F45F3F19F0CCC0511115C19D
:101A0000CFC0F0D098F39923C9F35523B1F3951BB8
:101A1000550BBB27AA2762177307840738F09F5F0F
:101A20005F4F220F331F441FAA1FA9F333D00E2E7E
:101A30003AF0E0E830D091505040E695001CCAF7EB
:101A400029D0FE2F27D0660F771F881FBB1F2617B0
:101A500037074807AB07B0E809F0BB0B802DBF0183
:101A6000FF2793585F4F2AF09E3F510568F092C0C0
:101A7000DCC05F3FECF3983EDCF386957795679585
:101A8000B795F7959F5FC9F7880F911D9695879534
:101A900097F90895E1E0660F771F881FBB1F621753
:101AA00073078407BA0720F0621B730B840BBA0B11
:101AB000EE1F88F7E095089504D06894B111B5C081
:101AC000089598D088F09F5790F0B92F9927B75173
:101AD000A0F0D1F0660F771F881F991F1AF0BA95F2
:101AE000C9F712C0B13081F09FD0B1E008959CC019
:101AF000672F782F8827B85F39F0B93FCCF38695E8
:101B000077956795B395D9F73EF490958095709544
:101B100061957F4F8F4F9F4F0895E89409C097FBC1
:101B20003EF490958095709561957F4F8F4F9F4FB4
:101B30009923A9F0F92F96E9BB279395F6958795F8
:101B400077956795B795F111F8CFFAF4BB0F11F4BB
:101B500060FF1BC06F5F7F4F8F4F9F4F16C0882362
:101B600011F096E911C0772321F09EE8872F762F98
:101B700005C0662371F096E8862F70E060E02AF0D9
:101B80009A95660F771F881FDAF7880F96958795C5
:101B900097F9089597F99F6780E870E060E00895ED
:101BA0009FEF80EC089500240A9416161706180675
:101BB0000906089500240A94121613061406050651
:101BC0000895092E0394000C11F4882352F0BB0FE2
:101BD00040F4BF2B11F460FF04C06F5F7F4F8F4F45
:101BE0009F4F089557FD9058440F551F59F05F3F80
:101BF00071F04795880F97FB991F61F09F3F79F02F
:101C000087950895121613061406551FF2CF4695B0
:101C1000F1DF08C0161617061806991FF1CF869532
:101C20007105610508940895E894BB276627772716
:101C3000CB0197F908950BD0C4CFB5DF28F0BADFF8
:101C400018F0952309F0A6CFABCF1124EECFCADF51
:101C5000A0F3959FD1F3950F50E0551F629FF001BF
:101C6000729FBB27F00DB11D639FAA27F00DB11D18
:101C7000AA1F649F6627B00DA11D661F829F2227A1
:101C8000B00DA11D621F739FB00DA11D621F839F28
:101C9000A00D611D221F749F3327A00D611D231FFE
:101CA000849F600D211D822F762F6A2F11249F574C
:101CB00050408AF0E1F088234AF0EE0FFF1FBB1F6F
:101CC000661F771F881F91505040A9F79E3F51050E
:101CD00070F060CFAACF5F3FECF3983EDCF38695BF
:101CE00077956795B795F795E7959F5FC1F7FE2BB9
:101CF000880F911D9695879597F90895A1E21A2E60
:101D0000AA1BBB1BFD010DC0AA1FBB1FEE1FFF1F9F
:101D1000A217B307E407F50720F0A21BB30BE40BEF
:101D2000F50B661F771F881F991F1A9469F7609536
:101D30007095809590959B01AC01BD01CF010895F0
:101D40000F93083090F0982F872F762F652F542F00
:101D5000432F322F22270850F4CF220F331F441F66
:101D6000551F661F771F881F991F0A95B2F70F919D
:101D70000895FB01DC0102C001900D9241505040DA
:101D8000D8F708956817790768F4FB01DC01E40FC0
:101D9000F51FA40FB51F02C002900E924150504093
:101DA000D8F708950C94B90EFB019F01E8944230D6
:101DB000C4F04532B4F44A3029F497FB1EF49095F0
:101DC00081959F4F642F77270E94050F805D8A338E
:101DD0000CF0895D8193CB010097A1F716F45DE2C9
:101DE00051931082C9010C94F50EDC01FC01672FA0
:101DF00071917723E1F7329704C07C916D937083E2
:101E00006291AE17BF07C8F30895AA1BBB1B51E12F
:101E100007C0AA1FBB1FA617B70710F0A61BB70B5A
:101E2000881F991F5A95A9F780959095BC01CD01FF
:061E30000895F894FFCFB5
:101E3600FFFFFF01000000B601A701E301D401C5C1
:101E46000198018901040A041F04040A11496E69F4
:101E56007469616C697A696E6700523A0054656DFF
:101E6600703A00460052656D6F74652054696D6561
:101E76006F7574200A0D0053656E6420627974656F
:101E860021200A0D00526567200054656D703A20C6
:101E960000496E76616C69642054656D702E0A0D7A
:101EA600004D61737465722073746172740A0D005B
:00000001FF
