:100000000C9446000C942F090C9465000C94650028
:100010000C9465000C9465000C9465000C946500CC
:100020000C9465000C9465000C9465000C946500BC
:100030000C9465000C941C040C9465000C946500F1
:100040000C9465000C9465000C9465000C9465009C
:100050000C9465000C9465000C9465000C9465008C
:100060000C9465000C9465000C9465000C9465007C
:100070000C9465000C9465000C9465000C9465006C
:100080000C9465000C9465000C94650011241FBE4F
:10009000CFEFD0E4DEBFCDBF11E0A0E0B1E0E4EDF2
:1000A000F0E200E00BBF02C007900D92A03FB10745
:1000B000D9F71AE0A0EFB1E001C01D92AA35B1074F
:1000C000E1F70E9480090C9468100C940000CF9313
:1000D000DF938091F5019091F601892BD1F1E2E84F
:1000E000F2E0C0E0D0E09091530A04C08091C000DB
:1000F000807231F49130D1F78091C8008072D1F3D1
:1001000021919130F9F08091C00085FFFCCF2093C0
:10011000C60021962091F5013091F6012150310958
:100120003093F6012093F501232BE9F6AE01BE01D1
:100130006E577D4F82E892E00E942510CE01DF913C
:10014000CF9108958091C80085FFFCCF2093CE0009
:10015000E0CF62E872E040E050E0C0E0D0E082E84A
:1001600092E00E942510CE01DF91CF910895FC010D
:1001700020812223F9F0213039F0222301F12130AE
:1001800081F080E090E00895109281022091650254
:1001900024361CF42F5F209365022091570A211109
:1001A00018C020916502263064F3FC01108280E0C3
:1001B00090E0089521E02093810210926502209141
:1001C000570A2223F1F221E0FC01208380E090E035
:1001D00008951092650280E090E008951092000169
:1001E0008F709091F301992349F1913011F086E0DD
:1001F000089580930201909101012AE0929F800D61
:1002000011241092F30194EC980F9F3108F1909112
:10021000F20187E69802812D11248595859597FD39
:100220008395809301012AE0829F90191124909375
:1002300002018FEF8093000185E008958093010112
:100240008FEF8093020181E08093F30186E00895AF
:100250008093F2018FEF8093000186E0089521E002
:1002600030E0062E01C0220F0A94EAF7411104C0C3
:1002700020952823822F0895282B822F089521E08E
:1002800030E0062E01C0220F0A94EAF78223089577
:100290001816190684F440E050E027E033E000002F
:1002A0002150310921153105D1F74F5F5F4F4817B4
:1002B000590799F708950895289888B9299A000050
:1002C000299887E093E0000001970097E1F787E025
:1002D00093E0000001970097E1F7089581E00C9406
:1002E0005C0124E630E087E093E00000019700978E
:1002F000E1F72150310921153105A9F788E30E9462
:100300005C0186E00E945C018CE00E945C012AE0B6
:1003100030E087E093E0000001970097E1F721507B
:10032000310921153105A9F70895289A88B9299A24
:100330000000299887E093E0000001970097E1F71B
:100340000895CF93DF93EC0188818823A1F1813058
:1003500049F58DE80E945C018091F001811137C060
:100360008091590A882381F08091810281110CC00B
:100370008091F101882341F08091F201882321F0DE
:1003800082E00E94950103C080E20E9495018BE803
:100390000E945C018091F101811114C084E00E94EF
:1003A00095018881811102C081E0888380E090E01E
:1003B000DF91CF9108950E94710181E00E945C015C
:1003C0008881F0CF83E00E9495018881EBCF81E0A6
:1003D0000E949501DCCFEF92FF921F93CF93DF93A2
:1003E00000D0CDB7DEB7880F880F880F805C698397
:1003F0007A830E945C016981E62E7A81F72E18E0EB
:10040000F70181917F010E9495011150C9F70F906A
:100410000F90DF91CF911F91FF90EF900895813160
:1004200018F081550C945C0181580C945C011F9369
:10043000CF93DF93FB019081992369F0EB0101C019
:10044000812F11E0180F0E940F0289910E949501DF
:1004500088818111F5CFDF91CF911F9108951F936E
:10046000CF93DF93EC018881882309F477C0813032
:1004700049F0882309F465C080E090E0DF91CF91D6
:100480001F9108958091570A811186C06FEA71E02B
:1004900080E10E9417026AE471E081E00E94170285
:1004A00082E80E945C01809101018A3008F07FC0DF
:1004B000805D0E949501809102018A3008F073C02E
:1004C000805D0E9495016DE471E081E10E94170258
:1004D00081E792E00E94570D0E94970EDC01CB014C
:1004E00090937F0280937E024AE050E067E672E0DC
:1004F0000E94371086E18093660285EC0E945C01C1
:1005000080916702882379F010E00E94950187E1CD
:10051000810F809366021F5FE12FF0E0E959FD4FE4
:1005200080818111F2CF63E571E088E10E941702BA
:1005300088EC0E945C018FED0E94950188818111F9
:100540009BCF80917C02833308F496CF81E088832F
:1005500080E090E0DF91CF911F9108958DE391E0CD
:100560009093550A8093540A80917C02833380F0E3
:1005700010927C0240E062E270E081E792E00E942B
:10058000660D61E081E792E00E949C0D888171CF49
:100590008F5F80937C02EECF8FE80E945C0180E049
:1005A0000E94950178CF8DE20E9495018CCF8DE25B
:1005B0000E94950180CF883008F008950C94EB01DB
:1005C0008F929F92AF92BF92CF92DF92EF92FF9263
:1005D0000F931F93CF93DF936C017B01611571051E
:1005E00009F43FC0C0E0D0E000E010E010C04F5F71
:1005F0005F4F6F4F7F4F19964D935D936D937C9333
:100600001C970F5F1F4FE8010E151F0551F1CC0F0E
:10061000DD1FCC0DDD1DA881B98119964D915D912D
:100620006D917C911C9715968D909D90AD90BC908E
:100630001897481559056A057B05C8F21D96ED9176
:10064000FC911E97CD010995A881B98119961D923B
:100650001D921D921C921C9741E050E060E070E0FA
:10066000CACFDF91CF911F910F91FF90EF90DF9054
:10067000CF90BF90AF909F908F900895AF92BF9210
:10068000CF92DF92EF92FF920F931F93CF93DF935E
:100690007C018B016115710509F43FC0DC01ED910E
:1006A000FC9161307105E1F1C180D280A380B480FA
:1006B00081E090E0C1E0D0E0FC01EE0FFF1FEE0D05
:1006C000FF1D0190F081E02D518142813381248111
:1006D000652F742F832F922F9601A5010E94CD0FB5
:1006E000611571058105910539F05C2D4D2D3A2D6F
:1006F0002B2D6B015C01ECCF2196CE01C017D107E9
:10070000D9F6C601DF91CF911F910F91FF90EF9025
:10071000DF90CF90BF90AF90089580E090E0F2CF4F
:1007200081819281EFCF4F925F926F927F92AF92D1
:10073000BF92CF92DF92EF92FF920F931F93CF93CE
:10074000DF936C017B010E943E035C01E114F10424
:1007500039F12C01612C712CE0E0F0E0C0E0D0E038
:10076000EE0FFF1FEC0DFD1DA081B1811C920081D9
:100770001181F8016181728183819481A3019201C9
:100780000E94CD0FF8012583368347835087218748
:100790003287438754872196FE01CE15DF0501F786
:1007A000C501DF91CF911F910F91FF90EF90DF90E6
:1007B000CF90BF90AF907F906F905F904F900895D3
:1007C00060930301709304018093050190930601E7
:1007D0006093F7017093F8018093F9019093FA0107
:1007E00008958BE0809381008DE790E090938900DD
:1007F0008093880082E080936F00109285001092B1
:1008000084008091030190910401A0910501B091B1
:1008100006018093F7019093F801A093F901B0933A
:10082000FA018FB780688FBF0895109281000895F4
:1008300081E08093FB0108951F920F920FB60F92F3
:1008400011248F939F93AF93BF938091F701909161
:10085000F801A091F901B091FA010197A109B1093C
:100860008093F7019093F801A093F901B093FA01F6
:10087000892B8A2B8B2B99F481E08093FB0180914B
:10088000030190910401A0910501B09106018093AC
:10089000F7019093F801A093F901B093FA01BF9189
:1008A000AF919F918F910F900FBE0F901F90189551
:1008B000813081F08091C10088618093C100809176
:1008C000C20086608093C20089E18093C4001092C8
:1008D000C50008958091C90088618093C900809106
:1008E000CA0086608093CA0089E18093CC00109290
:1008F000CD000895813021F08091C000807208956C
:100900008091C80080720895813021F08091C000EC
:10091000807408958091C80080740895813021F01A
:100920008091C000807808958091C80080780895F3
:10093000813069F08091C00087FF15C08091C600AA
:1009400080937D028091C00087FDF8CF089580914B
:10095000C80087FF09C08091CE0080937D028091FE
:10096000C80087FDF8CF08950895613039F090915F
:10097000C00095FFFCCF8093C60008959091C800F9
:1009800095FFFCCF8093CE000895813039F080919F
:10099000C00087FFFCCF8091C60008958091C800F9
:1009A00087FFFCCF8091CE0008958093530A0C946A
:1009B0005804CF93DF93FC0101900020E9F73197B1
:1009C000E81BF90B2091F5013091F601EF01C20F00
:1009D000D31FC13D47E0D4075CF4AF01BC01C9019E
:1009E0008E579D4F0E941C10D093F601C093F501C5
:1009F000DF91CF910895CF93DF93CDB7DEB7C45683
:100A0000D1090FB6F894DEBF0FBECDBFAB01BE015A
:100A10006F5F7F4F0E943710CE0101960E94D9046C
:100A2000CC59DF4F0FB6F894DEBF0FBECDBFDF91BC
:100A3000CF910895CF938091000187FD22C08F5FF1
:100A4000809300018430ECF0CFEFC093000185E586
:100A500091E00E94D9041092F3019091F20187E68F
:100A60009802812D11248595859597FD8395809316
:100A700001012AE0829F9019112490930201C093F2
:100A8000000180E090E0CF91089584B1806B84B93B
:100A9000269881E58CBD089580E484B981EC8CBDF5
:100AA00008958EBD0DB407FEFDCF8EB50895EF926B
:100AB000FF920F931F93CF93DF932C988EBD0DB4AD
:100AC00007FEFDCF8EB52C9A12161306BCF4EB016F
:100AD0008A017B01E20EF31E87E691E00E94D904B1
:100AE0002C9889918EBD0DB407FEFDCF8EB5F8010F
:100AF00081938F012C9ACE15DF0571F7DF91CF918D
:100B00001F910F91FF90EF9008952C988EBD0DB41A
:100B100007FEFDCF8EB51416150664F4FB01460FD3
:100B2000571F81918EBD0DB407FEFDCF8EB5E41722
:100B3000F507B9F72C9A0895CF93DF931F92CDB79D
:100B4000DEB7698341E050E0BE016F5F7F4F0E94D6
:100B500085050F90DF91CF9108952C988EBD0DB42F
:100B600007FEFDCF8EB51416150664F4FB01460F83
:100B7000571F1EBC0DB407FEFDCF8EB58193E41741
:100B8000F507B9F72C9A089552985A9AE89A82E094
:100B900080936900789408958091F101882309F485
:100BA0006FC08FE49EE6A0E2809397019093980136
:100BB000A09399018091F0018823C1F18FE49EE612
:100BC000A0E2B0E28093A2019093A301A093A401BC
:100BD000B093A50180917E0290917F020097C1F1B0
:100BE0006AE070E00E94B90F605D60937B01805DF8
:100BF00080937C0186E480937D01809101018F3F89
:100C0000A1F1805D80938901809102018F3FA1F164
:100C1000805D80938A018091F201882319F086E437
:100C200080938B0185E791E00C94D90481E495E7EA
:100C3000A4E7BFE68093A2019093A301A093A4012F
:100C4000B093A50180917E0290917F02009741F6BA
:100C50008DE29DE2A0E280937B0190937C01A093C2
:100C60007D01809101018F3F61F68DE280938901C2
:100C7000809102018F3F61F68DE280938A01CBCF94
:100C80008FE496E6A6E68093970190939801A0934F
:100C9000990190CFCF93DF93EC010E94CC0588811E
:100CA000813009F488C00CF472C0823009F440C06D
:100CB000833039F481E0809380028093590A109246
:100CC000520A80917E0290917F024091F201242F7E
:100CD000332727FD309582179307F4F582E0888348
:100CE0008091F101882309F440C080918102811133
:100CF0003CC04423D1F18091F001882309F46FC0F6
:100D0000129A92B180918002882309F465C0892FDC
:100D1000886082B992B18091520A882309F458C040
:100D2000892F806182B980E090E0DF91CF910895B2
:100D30001092800281E08093590A8093520A809138
:100D40007E0290917F024091F201242F332727FDEC
:100D500030958217930714F2281739074CF583E072
:100D600088838091F1018111C0CF92B18091F0010F
:100D7000882351F0892F846082B91398149880E0F9
:100D800090E0DF91CF910895892F8B7FF5CF81116E
:100D900098CF40917E0220917F024093F201109201
:100DA00080021092590A1092520A842F922F8FCFEC
:100DB00081E0888395CF109280021092590A109298
:100DC000520A80917E0290917F024091F2017FCF82
:100DD000892F8F7E82B9A7CF892F877F9ACF82B143
:100DE0009091590A992319F0846082B98ACF8B7F38
:100DF00082B987CF0F931F93CF93DF93CDB7DEB721
:100E0000C556D1090FB6F894DEBF0FBECDBF00E0C6
:100E100010E041E050E0BE016B597F4F802F0E94EF
:100E2000AD0589EA91E00E94D9044AE050E0BE0194
:100E30006F5F7F4FC8010E943710CE0101960E945C
:100E4000D9048EEA91E00E94D904A6968FADA697A8
:100E500040E150E0BE016F5F7F4F90E00E9437108D
:100E6000CE0101960E94D90485EB91E00E94D9043D
:100E70000F5F1F4F0A30110561F685EB91E00E946C
:100E8000D904CB59DF4F0FB6F894DEBF0FBECDBFEC
:100E9000DF91CF911F910F9108951F93CF93DF930F
:100EA000CDB7DEB72C970FB6F894DEBF0FBECDBF1F
:100EB00086E5898384E38A8382E18B835B988AE079
:100EC0008C8741E050E0BE01645F7F4F80E20E946A
:100ED000850587E093E0000001970097E1F787E040
:100EE00093E0000001970097E1F78FE38B8741E0E3
:100EF00050E0BE01655F7F4F80E20E94850511E0F2
:100F00001A8741E050E0BE01665F7F4F82E20E9497
:100F1000850584E0898741E050E0BE01675F7F4F2F
:100F200081E30E948505188641E050E0BE01685FBC
:100F30007F4F81E20E94850587E08F8341E050E08A
:100F4000BE01695F7F4F85E20E9485051E8341E0F7
:100F500050E0BE016A5F7F4F83E20E94850586E014
:100F60008D8341E050E0BE016B5F7F4F86E20E94BF
:100F7000850540E050E060E070E082EE0E9485056B
:100F800080E78C8341E050E0BE016C5F7F4F87E2D9
:100F90000E94850543E050E0BE016F5F7F4F8AE20B
:100FA0000E9485055B9A2C960FB6F894DEBF0FBEA3
:100FB000CDBFDF91CF911F910895FF920F931F93A3
:100FC000CF93DF93CDB7DEB72B970FB6F894DEBF84
:100FD0000FBECDBFF82E8B015B988AE08A8741E077
:100FE00050E0BE01665F7F4F80E20E94850527E0EA
:100FF00033E000002150310921153105D1F727E0F8
:1010000033E000002150310921153105D1F78EE37D
:10101000898741E050E0BE01675F7F4F80E20E9418
:101020008505188641E050E0BE01685F7F4F81E290
:101030000E94850581E08F8341E050E0BE01695F39
:101040007F4F83E20E9485051E8241E050E0BE0191
:101050006A5F7F4F84E20E94850587E08D8341E0CF
:1010600050E0BE016B5F7F4F85E20E94850586E000
:101070008C8341E050E0BE016C5F7F4F86E20E94AE
:10108000850540E050E060E070E081EE0E9485055B
:1010900080E78B8341E050E0BE016D5F7F4F87E2C8
:1010A0000E948505FA8241E050E0BE016E5F7F4FED
:1010B00080EA0E94850543E050E0B80180E30E9489
:1010C00085055B9A87E093E0000001970097E1F7C0
:1010D00087E093E0000001970097E1F741E050E0DE
:1010E000BE01655F7F4F87E00E94AD0580E6898382
:1010F00041E050E0BE016F5F7F4F87E20E948505AF
:101100002B960FB6F894DEBF0FBECDBFDF91CF9107
:101110001F910F91FF9008951092F3019091F201A9
:1011200087E69802812D11248595859597FD8395F5
:10113000809301012AE0829F90191124909302016B
:101140008FEF8093000108958F33E9F09091F401BF
:10115000992341F08133F1F0823351F01092F40180
:1011600085E0089590ED980F9A3090F40C94EE007D
:1011700081E09091F001911180E08093F001109254
:10118000F40186E0089581E08093F40186E00895FB
:1011900086E0089581E09091F101911180E08093C3
:1011A000F101882361F390917E029093F2011092F5
:1011B000F30187E69802812D11248595859597FD89
:1011C0008395809301012AE0829F901911249093C6
:1011D00002018FEF80930001D2CFCF93DF93CDB781
:1011E000DEB729970FB6F894DEBF0FBECDBF41E042
:1011F00050E0BE01675F7F4F87E00E94AD058985A3
:1012000086FF24C044E050E0BE016F5F7F4F81E65F
:101210000E94AD0580E7888741E050E0BE01685F2D
:101220007F4F87E20E9485058C810E94A40899EC7B
:101230009D8397E89E8393E99F8344E050E0BE013D
:101240006B5F7F4F0E94DD070E944D0729960FB606
:10125000F894DEBF0FBECDBFDF91CF9108951F92EE
:101260000F920FB60F9211240BB60F922F933F934C
:101270004F935F936F937F938F939F93AF93BF939E
:10128000EF93FF930E94ED0881E08CBBFF91EF91FB
:10129000BF91AF919F918F917F916F915F914F918E
:1012A0003F912F910F900BBE0F900FBE0F901F908C
:1012B00018958091C00087FF10C08091C00087FF03
:1012C000FCCF8091C600853659F0863691F481E0D6
:1012D0008093F40182E30E94A40880E090E00895E6
:1012E00081E08093F40181E30E94A40880E090E013
:1012F000089580538A3088F780630E94A408EDCF58
:10130000CF93DF93CDB7DEB7E6970FB6F894DEBF85
:101310000FBECDBF8FEF87B918B883E084B915B879
:101320008DEF81B912E012B98AE08AB985E08BB9F4
:101330008EE0E7E0F1E0DE01119601900D928A95D2
:10134000E1F782E390E0A0E0B0E080935702909351
:101350005802A0935902B0935A0287E690E0909306
:1013600064028093630288EE93E0A0E0B0E0809393
:10137000480290934902A0934A02B0934B028AE13B
:1013800095E0909355028093540284E690E0A0E0AB
:10139000B0E08093390290933A02A0933B02B0935D
:1013A0003C0229E539E030934602209345028093C0
:1013B0002A0290932B02A0932C02B0932D0221EAD3
:1013C00031E0309337022093360280931B029093D2
:1013D0001C02A0931D02B0931E028FE292E0909334
:1013E00028028093270284EF91E0A0E0B0E0809390
:1013F0000C0290930D02A0930E02B0930F022AE408
:1014000036E030931902209318028093FD019093E7
:10141000FE01A093FF01B093000287EB90E0909350
:101420000A028093090284B1806B84B9269881E511
:101430008CBD0E944D0752985A9AE89A1093690001
:1014400078941092530A80E00E94580424E130E01E
:1014500087E093E0000001970097E1F72150310900
:1014600021153105A9F781EB91E00E94D90488EBA1
:1014700091E00E94D90483ED91E00E94D90467E0D5
:1014800070E0CE0101960E949303A0E0B0E080934B
:10149000030190930401A0930501B09306018BE032
:1014A000809381008DE790E090938900809388007D
:1014B00082E080936F0010928500109284008091EA
:1014C000030190910401A0910501B0910601809360
:1014D000F7019093F801A093F901B093FA018FB747
:1014E00080688FBF88E0E5E1F1E0DE019F96019022
:1014F0000D928A95E1F788E0EDE1F1E0DE01979643
:1015000001900D928A95E1F788E0E5E2F1E0DE01D5
:101510005F9601900D928A95E1F788E0EDE2F1E0A7
:10152000DE01579601900D928A95E1F788E0E5E398
:10153000F1E0DE011F9601900D928A95E1F7BE0160
:10154000615D7F4F80E00E94EB01BE01695D7F4FCE
:1015500081E00E94EB01BE01615E7F4F82E00E944C
:10156000EB01BE01695E7F4F83E00E94EB01BE018B
:10157000615F7F4F84E00E94EB0180B182708093B5
:10158000570A67E070E0CE0101960E94E002809168
:10159000FB018823E1F31092FB01EFCF0F931F9320
:1015A000CF93FC0170E020E030E081E090E0A08586
:1015B000B185CE9142854F708C0102C0000F111F82
:1015C0004A95E2F7C02BCC93A085B185CC9142859A
:1015D0004F708C0102C0000F111F4A95E2F7A8015D
:1015E00040954C234C9312E01A95F1F700C0AC01E2
:1015F000022E02C0440F551F0A94E2F746235723D8
:10160000452B91F0A085B185CC9142854F708C011E
:1016100002C0000F111F4A95E2F7A801C02BCC931E
:101620005E91409545234C9310EA1A95F1F7A085F9
:10163000B185CC9142854F708C0102C0000F111F03
:101640004A95E2F7A801C02BCC935E9140954523C3
:101650004C932F5F3F4F2830310509F0A8CFCF9131
:101660001F910F910895CF93DF93FC0160E070E02C
:1016700080E041E050E0A085B1859E9122852F70E9
:10168000EA0102C0CC0FDD1F2A95E2F79C2B9C9348
:10169000A085B1859C9122852F70EA0102C0CC0FF4
:1016A000DD1F2A95E2F79E01209529232C93D2E095
:1016B000DA95F1F700C0A085B1859C9122852F7045
:1016C000EA0102C0CC0FDD1F2A95E2F79E019C2B98
:1016D0009C939E91209529232C93DAE1DA95F1F7DA
:1016E00000C0A085B18512972C9130E020953095EF
:1016F000A285AF70EA0102C0CC0FDD1FAA95E2F708
:101700002C233D23A1E0B0E01216130614F4A0E050
:10171000B0E0062E01C0AA0F0A94EAF78A2BD5E89A
:10172000DA95F1F700006F5F7F4F6830710509F0BF
:10173000A2CFDF91CF910895FC01A085B1854C9196
:1017400022852F702F5F81E090E0BC0102C0660F00
:10175000771F2A95E2F7462B4C93A085B1854E91D1
:1017600022852F70BC0102C0660F771F2A95E2F711
:10177000462B4C93A085B1853C9122852F7001C0EA
:10178000880F2A95EAF7809583238C9389EC93E060
:101790000197F1F700C00000A085B1852C9132853A
:1017A0003F7081E090E001C0880F3A95EAF7282B5E
:1017B0002C9390E59A95F1F7A085B1854C912285FF
:1017C0002F7081E090E0BC0102C0660F771F2A9560
:1017D000E2F79B01462B4C933E91209523232C93BB
:1017E000A085B18512972C9130E0209530954285E7
:1017F0004F7002C0880F991F4A95E2F728233923BA
:1018000081E0121613063CF4EDE8F3E03197F1F7AE
:1018100000C00000089580E0EDE8F3E03197F1F7B3
:1018200000C0000008959F92AF92BF92CF92DF92C6
:10183000EF92FF920F931F93CF93DF93CDB7DEB755
:1018400027970FB6F894DEBF0FBECDBF7C010E9474
:101850009C0B982E811113C0892D27960FB6F894F2
:10186000DEBF0FBECDBFDF91CF911F910F91FF90D3
:10187000EF90DF90CF90BF90AF909F90089563E37B
:10188000C7010E94CE0AC7010E94330BF70187836C
:101890001182128213821482158216828E010F5FCA
:1018A0001F4F68015E01F8E0AF0EB11CC7010E9436
:1018B000330BF80181938F01EA15FB05B9F7F701A6
:1018C000218132814381548165817681F801A29121
:1018D00080E090E008E00E94EF0F2A2BCE16DF0692
:1018E000B1F7F70121833283438354836583768381
:1018F000C7010E94330BF7018083AECFCF93DF93F4
:10190000EC01798768874F708A85807F842B8A876E
:10191000CE010E949C0B811104C080E0DF91CF9129
:101920000895CE01DF91CF910C94130C1F93CF93A8
:10193000DF93EC010E949C0B182F882341F06CEC84
:10194000CE010E94CE0A64E4CE010E94CE0A812F0D
:10195000DF91CF911F910895CF92DF92EF92FF9286
:101960000F931F93CF93DF93EC010E94330B8111F0
:101970000DC06DEC7CE08FE194E4DF91CF911F917D
:101980000F91FF90EF90DF90CF900895CE010E94CD
:101990009C0B811105C060E070E08FE793E4EDCF10
:1019A0006CECCE010E94CE0A6EEBCE010E94CE0AF4
:1019B000CE010E94330B182FCE010E94330B612FF2
:1019C000772767FD7095607F772775956795759583
:1019D0006795759567957595679520E1829FC0011C
:1019E0001124682B792B882777FD8095982F0E94EA
:1019F000CA0E6B017C017A8572957F701F70812FF2
:101A0000992787FD909540E050E060E0272FC1E0E6
:101A1000D0E0A4E0B0E00EC09D01201B310B01C05E
:101A2000EE0F2A95EAF76E2B4F5F5F4F272F241B8F
:101A30002F3FA9F0022F112707FD1095FE0102C0CC
:101A4000EE0FFF1F2A95E2F79F0128233923E1E0DB
:101A5000F0E01216130604F3E0E0F0E0DDCF6623B9
:101A6000B9F0772767FD7095872F972F0E94CA0ED0
:101A70009B01AC0160E070E080E89FE30E942F0EC4
:101A80009B01AC01C701B6010E94CB0D6B017C012B
:101A900026E636E646EE5FE3C701B6010E94560F22
:101AA00020E030E040E052E40E94CB0D66CFCF93BF
:101AB000DF93EC010E94960CCE010E94330B882329
:101AC000D9F3CE01DF91CF910C94AC0C1F93CF933F
:101AD000DF93EC010E947E0C811106C010E0812F83
:101AE000DF91CF911F910895CE010E949C0B182F7A
:101AF0008823A1F36CECCE010E94CE0A6EEBCE01DE
:101B00000E94CE0ACE010E94330BCE010E94330BFD
:101B1000CE010E94330BCE010E94330BCE010E94F6
:101B2000330B807686959A859F70982B9A87812FA4
:101B3000DF91CF911F9108950F931F93CF93DF9360
:101B4000EC01062F0E949C0B182F8823E9F06CEC07
:101B5000CE010E94CE0A6EE4CE010E94CE0A60E061
:101B6000CE010E94CE0A60E0CE010E94CE0A602F14
:101B70006295660F607ECE010E94CE0A0295007FBC
:101B80008A858F70802B8A87812FDF91CF911F915B
:101B90000F9108955058BB27AA270ED04DC13ED1B2
:101BA00030F043D120F031F49F3F11F41EF433C1E3
:101BB0000EF4E095E7FB29C1E92F4FD180F3BA1766
:101BC000620773078407950718F071F49EF567C1E3
:101BD0000EF4E0950B2EBA2FA02D0B01B901900148
:101BE0000C01CA01A0011124FF27591B99F0593F8C
:101BF00050F4503E68F11A16F040A22F232F342FD4
:101C00004427585FF3CF469537952795A795F04021
:101C10005395C9F77EF41F16BA0B620B730B840B36
:101C2000BAF09150A1F0FF0FBB1F661F771F881FEE
:101C3000C2F70EC0BA0F621F731F841F48F4879546
:101C400077956795B795F7959E3F08F0B3CF939535
:101C5000880F08F09927EE0F9795879508950CD077
:101C6000EBC0E3D040F0DAD030F021F45F3F19F060
:101C7000CCC0511115C1CFC0F0D098F39923C9F34E
:101C80005523B1F3951B550BBB27AA276217730782
:101C9000840738F09F5F5F4F220F331F441FAA1F36
:101CA000A9F333D00E2E3AF0E0E830D091505040F6
:101CB000E695001CCAF729D0FE2F27D0660F771FA4
:101CC000881FBB1F261737074807AB07B0E809F086
:101CD000BB0B802DBF01FF2793585F4F2AF09E3F1B
:101CE000510568F092C0DCC05F3FECF3983EDCF336
:101CF000869577956795B795F7959F5FC9F7880F94
:101D0000911D9695879597F90895E1E0660F771FE5
:101D1000881FBB1F621773078407BA0720F0621B76
:101D2000730B840BBA0BEE1F88F7E095089504D06F
:101D30006894B111B5C0089598D088F09F5790F07D
:101D4000B92F9927B751A0F0D1F0660F771F881FE0
:101D5000991F1AF0BA95C9F712C0B13081F09FD01F
:101D6000B1E008959CC0672F782F8827B85F39F0BD
:101D7000B93FCCF3869577956795B395D9F73EF43F
:101D800090958095709561957F4F8F4F9F4F0895E7
:101D9000E89409C097FB3EF4909580957095619505
:101DA0007F4F8F4F9F4F9923A9F0F92F96E9BB27BB
:101DB0009395F695879577956795B795F111F8CF37
:101DC000FAF4BB0F11F460FF1BC06F5F7F4F8F4FA2
:101DD0009F4F16C0882311F096E911C0772321F098
:101DE0009EE8872F762F05C0662371F096E8862F30
:101DF00070E060E02AF09A95660F771F881FDAF787
:101E0000880F9695879597F9089597F99F6780E8C9
:101E100070E060E008959FEF80EC089500240A943C
:101E20001616170618060906089500240A941216B5
:101E30001306140605060895092E0394000C11F4E8
:101E4000882352F0BB0F40F4BF2B11F460FF04C095
:101E50006F5F7F4F8F4F9F4F089557FD9058440FEE
:101E6000551F59F05F3F71F04795880F97FB991FF9
:101E700061F09F3F79F087950895121613061406B6
:101E8000551FF2CF4695F1DF08C016161706180643
:101E9000991FF1CF86957105610508940895E8941E
:101EA000BB2766277727CB0197F908950BD0C4CFBE
:101EB000B5DF28F0BADF18F0952309F0A6CFABCF35
:101EC0001124EECFCADFA0F3959FD1F3950F50E018
:101ED000551F629FF001729FBB27F00DB11D639FDC
:101EE000AA27F00DB11DAA1F649F6627B00DA11D82
:101EF000661F829F2227B00DA11D621F739FB00D28
:101F0000A11D621F839FA00D611D221F749F332797
:101F1000A00D611D231F849F600D211D822F762F30
:101F20006A2F11249F5750408AF0E1F088234AF02D
:101F3000EE0FFF1FBB1F661F771F881F9150504079
:101F4000A9F79E3F510570F060CFAACF5F3FECF339
:101F5000983EDCF3869577956795B795F795E79565
:101F60009F5FC1F7FE2B880F911D9695879597F976
:101F7000089597FB072E16F4009407D077FD09D03B
:101F80000E94081007FC05D03EF4909581959F4F64
:101F90000895709561957F4F0895A1E21A2EAA1BAE
:101FA000BB1BFD010DC0AA1FBB1FEE1FFF1FA21709
:101FB000B307E407F50720F0A21BB30BE40BF50B06
:101FC000661F771F881F991F1A9469F7609570958F
:101FD000809590959B01AC01BD01CF0108950F93B1
:101FE000083090F0982F872F762F652F542F432F8E
:101FF000322F22270850F4CF220F331F441F551FC2
:10200000661F771F881F991F0A95B2F70F910895D1
:10201000AA1BBB1B51E107C0AA1FBB1FA617B7070E
:1020200010F0A61BB70B881F991F5A95A9F780952A
:102030009095BC01CD010895FB01DC0102C0019027
:102040000D9241505040D8F708956817790768F409
:10205000FB01DC01E40FF51FA40FB51F02C00290C5
:102060000E9241505040D8F708950C941C10FB017B
:102070009F01E8944230C4F04532B4F44A3029F468
:1020800097FB1EF4909581959F4F642F77270E94B0
:102090000810805D8A330CF0895D8193CB01009735
:1020A000A1F716F45DE251931082C9010C94581007
:1020B000DC01FC01672F71917723E1F7329704C0AF
:1020C0007C916D9370836291AE17BF07C8F308953A
:0420D000F894FFCFB2
:1020D400FFFFFF0100000029021A025602470238DE
:1020E400020B02FC01040A041F04040A1100061A6C
:1020F400150B0C001F00061A150B0C00001012160D
:102104001C18101010101010181C161210496E69AB
:102114007469616C697A696E6700523A0054656D3E
:10212400703A00460052656D6F74652054696D65A0
:102134006F7574200A0D0053656E642062797465AE
:1021440021200A0D0054656D703A202D2D20207C2D
:10215400205461726765743A202D2D20207C205311
:10216400797374656D3A204F6666207C2046616EF3
:102174003A204175746F200D0052656720003A20A3
:10218400000A0D0A0D0A0D00202057656C636F6D5F
:102194006520746F20746865726D6F737461742147
:1021A4000A0D003D3D3D3D3D3D3D3D3D3D3D3D3DFB
:1021B4003D3D3D3D3D3D3D3D3D3D3D3D3D0A0D00EB
:00000001FF
