:100000000C9446000C943F080C9465000C94650019
:100010000C9465000C9465000C9465000C946500CC
:100020000C9465000C9465000C9465000C946500BC
:100030000C9465000C9413040C9465000C946500FA
:100040000C9465000C9465000C9465000C9465009C
:100050000C9465000C9465000C9465000C9465008C
:100060000C9465000C9465000C9465000C9465007C
:100070000C9465000C9465000C9465000C9465006C
:100080000C9465000C9465000C94650011241FBE4F
:10009000CFEFD0E4DEBFCDBF11E0A0E0B1E0E4ECF3
:1000A000FDE100E00BBF02C007900D92AE37B10733
:1000B000D9F719E0AEE7B1E001C01D92A53DB10747
:1000C000E1F70E9469080C94E00E0C940000FC011A
:1000D0002081213009F479C00CF462C0223081F112
:1000E000233009F080C021E02093E3012093E20156
:1000F0001092E1012091FD013091FE0140917E01BD
:1001000061E0552747FD5095241735076CF522E02F
:10011000FC01208382B1662381F1846082B982B1BF
:100120009091E301992381F1886082B982B1909125
:10013000E101911130C08F7E82B980E090E0089596
:100140001092E30121E02093E2012093E10120914C
:10015000FD013091FE0140917E0161E0552747FD90
:100160005095241735079CF24217530754F523E0A6
:10017000FC01208382B16111D0CF8B7F82B982B123
:100180009091E3019111D0CF877F82B982B1909194
:10019000E101992381F2806182B980E090E00895C5
:1001A000211121C04091FD015091FE0140937E013B
:1001B0001092E3011092E2011092E1019A0160E0D5
:1001C000A0CF21E0FC012083A5CF1092E301109283
:1001D000E2011092E1012091FD013091FE01409178
:1001E0007E0160E08ECF2091FD013091FE014091B3
:1001F0007E016091E20185CFCF93DF9380918001F2
:1002000090918101892BD1F1EFEFF1E0C0E0D0E0D6
:100210009091CF0904C08091C000807231F4913078
:10022000D1F78091C8008072D1F321919130F9F01B
:100230008091C00085FFFCCF2093C60021962091BD
:100240008001309181012150310930938101209347
:100250008001232BE9F6AE01BE0161507E4F8FEF86
:1002600091E00E94890ECE01DF91CF910895809197
:10027000C80085FFFCCF2093CE00E0CF6FEF71E088
:1002800040E050E0C0E0D0E08FEF91E00E94890EA6
:10029000CE01DF91CF91089521E030E0062E01C01C
:1002A000220F0A94EAF7411104C020952823822FD7
:1002B0000895282B822F089521E030E0062E01C0FA
:1002C000220F0A94EAF7822308951816190684F477
:1002D00040E050E027E033E00000215031092115D3
:1002E0003105D1F74F5F5F4F4817590799F70895C8
:1002F0000895289888B9299A0000299887E093E002
:10030000000001970097E1F787E093E00000019774
:100310000097E1F70895CF93DF93EC01888188235C
:1003200071F0882329F080E090E0DF91CF9108956B
:1003300081E0888380E090E0DF91CF91089581E0B3
:100340000E9479018881EDCF81E00C94790124E647
:1003500030E087E093E0000001970097E1F721503B
:10036000310921153105A9F788E30E94790186E05A
:100370000E9479018FE00E94790181E00E94790159
:100380008CE00E9479012AE030E087E093E00000F1
:1003900001970097E1F72150310921153105A9F79F
:1003A0000895289A88B9299A0000299887E093E04F
:1003B000000001970097E1F70895813118F0815509
:1003C0000C94790181580C9479011F93CF93DF939A
:1003D000FB019081992369F0EB0101C0812F11E0AD
:1003E000180F0E94DD0189910E94D101888181113D
:1003F000F5CFDF91CF911F9108951F93CF93DF9396
:10040000EC018881882309F477C0813049F0882382
:1004100009F465C080E090E0DF91CF911F910895CD
:100420008091D309811186C06DE571E080E10E9461
:10043000E50168E271E081E00E94E50182E80E9446
:100440007901809101018A3008F07FC0805D0E94AF
:10045000D101809102018A3008F073C0805D0E9452
:10046000D1016BE271E081E10E94E50180EF91E052
:100470000E94E30B0E94230DDC01CB019093FE014F
:100480008093FD014AE050E066EE71E00E949B0E11
:1004900086E18093E50185EC0E9479018091E60177
:1004A000882379F010E00E94D10187E1810F8093C9
:1004B000E5011F5FE12FF0E0EA51FE4F80818111DD
:1004C000F2CF61E371E088E10E94E50188EC0E94CF
:1004D00079018FED0E94D101888181119BCF80919C
:1004E000FB01833308F496CF81E0888380E090E0BD
:1004F000DF91CF911F9108958BE191E09093D10905
:100500008093D0098091FB01833380F01092FB012E
:1005100040E062E270E080EF91E00E94F20B61E067
:1005200080EF91E00E94280C888171CF8F5F8093CB
:10053000FB01EECF8FE80E94790180E00E94D1019B
:1005400078CF8DE20E94D1018CCF8DE20E94D10143
:1005500080CFEF92FF921F93CF93DF9300D0CDB760
:10056000DEB7883040F00F900F90DF91CF911F9150
:10057000FF90EF900895880F880F880F805C698343
:100580007A830E9479016981E62E7A81F72E18E03C
:10059000F70181917F010E94D1011150C9F70F909D
:1005A0000F90DF91CF911F91FF90EF9008958F9260
:1005B0009F92AF92BF92CF92DF92EF92FF920F93F2
:1005C0001F93CF93DF936C017B016115710509F4D3
:1005D0003FC0C0E0D0E000E010E010C04F5F5F4FD0
:1005E0006F4F7F4F19964D935D936D937C931C973E
:1005F0000F5F1F4FE8010E151F0551F1CC0FDD1FD6
:10060000CC0DDD1DA881B98119964D915D916D913B
:100610007C911C9715968D909D90AD90BC901897ED
:10062000481559056A057B05C8F21D96ED91FC91A8
:100630001E97CD010995A881B98119961D921D9229
:100640001D921C921C9741E050E060E070E0CACF20
:10065000DF91CF911F910F91FF90EF90DF90CF909E
:10066000BF90AF909F908F900895AF92BF92CF921E
:10067000DF92EF92FF920F931F93CF93DF937C0152
:100680008B016115710509F43FC0DC01ED91FC910E
:1006900061307105E1F1C180D280A380B48081E036
:1006A00090E0C1E0D0E0FC01EE0FFF1FEE0DFF1D5A
:1006B0000190F081E02D5181428133812481652FA9
:1006C000742F832F922F9601A5010E94450E61156C
:1006D00071058105910539F05C2D4D2D3A2D2B2D9D
:1006E0006B015C01ECCF2196CE01C017D107D9F682
:1006F000C601DF91CF911F910F91FF90EF90DF9096
:10070000CF90BF90AF90089580E090E0F2CF8181CC
:100710009281EFCF4F925F926F927F92AF92BF9292
:10072000CF92DF92EF92FF920F931F93CF93DF93BD
:100730006C017B010E9435035C01E114F10439F185
:100740002C01612C712CE0E0F0E0C0E0D0E0EE0F75
:10075000FF1FEC0DFD1DA081B1811C920081118154
:10076000F8016181728183819481A30192010E94C9
:10077000450EF801258336834783508721873287CA
:10078000438754872196FE01CE15DF0501F7C50189
:10079000DF91CF911F910F91FF90EF90DF90CF905D
:1007A000BF90AF907F906F905F904F90089560934F
:1007B00003017093040180930501909306016093F7
:1007C0008201709383018093840190938501089541
:1007D0008BE0809381008DE790E090938900809377
:1007E000880082E080936F00109285001092840050
:1007F0008091030190910401A0910501B09106013F
:100800008093820190938301A0938401B09385012A
:100810008FB780688FBF089510928100089581E09E
:100820008093860108951F920F920FB60F921124A4
:100830008F939F93AF93BF93809182019091830197
:10084000A0918401B09185010197A109B10980931C
:10085000820190938301A0938401B0938501892B39
:100860008A2B8B2B99F481E0809386018091030180
:1008700090910401A0910501B0910601809382013D
:1008800090938301A0938401B0938501BF91AF91B0
:100890009F918F910F900FBE0F901F9018958130F0
:1008A00081F08091C10088618093C1008091C20075
:1008B00086608093C20089E18093C4001092C500D5
:1008C00008958091C90088618093C9008091CA0011
:1008D00086608093CA0089E18093CC001092CD009D
:1008E0000895813021F08091C00080720895809138
:1008F000C80080720895813021F08091C00080741A
:1009000008958091C80080740895813021F080910D
:10091000C000807808958091C80080780895813063
:1009200069F08091C00087FF15C08091C600809358
:10093000FC018091C00087FDF8CF08958091C80028
:1009400087FF09C08091CE008093FC018091C80090
:1009500087FDF8CF08950895613039F09091C00077
:1009600095FFFCCF8093C60008959091C80095FF35
:10097000FCCF8093CE000895813039F08091C00083
:1009800087FFFCCF8091C60008958091C80087FF43
:10099000FCCF8091CE0008958093CF090C944F0432
:1009A000CF93DF93FC0101900020E9F73197E81B1A
:1009B000F90B2091800130918101EF01C20FD31F0B
:1009C000C13D47E0D4075CF4AF01BC01C9018150CF
:1009D0009E4F0E94800ED0938101C0938001DF91D1
:1009E000CF910895CF93DF93CDB7DEB7C456D10929
:1009F0000FB6F894DEBF0FBECDBFAB01BE016F5F77
:100A00007F4F0E949B0ECE0101960E94D004CC59CC
:100A1000DF4F0FB6F894DEBF0FBECDBFDF91CF9191
:100A20000895CF938091000187FD22C08F5F80934E
:100A300000018430ECF0CFEFC093000183E391E03C
:100A40000E94D00410927F0190917E0187E6980267
:100A5000812D11248595859597FD839580930101BE
:100A60002AE0829F9019112490930201C093000103
:100A700080E090E0CF91089584B1806B84B926988E
:100A800081E58CBD089580E484B981EC8CBD089526
:100A90008EBD0DB407FEFDCF8EB50895EF92FF9287
:100AA0000F931F93CF93DF932C988EBD0DB407FE49
:100AB000FDCF8EB52C9A12161306BCF4EB018A01F9
:100AC0007B01E20EF31E85E491E00E94D0042C9895
:100AD00089918EBD0DB407FEFDCF8EB5F8018193CF
:100AE0008F012C9ACE15DF0571F7DF91CF911F9101
:100AF0000F91FF90EF9008952C988EBD0DB407FED6
:100B0000FDCF8EB51416150664F4FB01460F571F72
:100B100081918EBD0DB407FEFDCF8EB5E417F507AC
:100B2000B9F72C9A0895CF93DF931F92CDB7DEB714
:100B3000698341E050E0BE016F5F7F4F0E947C05FA
:100B40000F90DF91CF9108952C988EBD0DB407FEC4
:100B5000FDCF8EB51416150664F4FB01460F571F22
:100B60001EBC0DB407FEFDCF8EB58193E417F507CB
:100B7000B9F72C9A089552985A9AE89A82E080938D
:100B80006900789408950F931F93CF93DF93CDB7A7
:100B9000DEB7C556D1090FB6F894DEBF0FBECDBF84
:100BA00000E010E041E050E0BE016B597F4F802F24
:100BB0000E94A40583E591E00E94D0044AE050E041
:100BC000BE016F5F7F4FC8010E949B0ECE01019650
:100BD0000E94D0048CE591E00E94D004A6968FADCF
:100BE000A69740E150E0BE016F5F7F4F90E00E940A
:100BF0009B0ECE0101960E94D00480E591E00E94F8
:100C0000D0040F5F1F4F0A30110561F680E591E0B7
:100C10000E94D004CB59DF4F0FB6F894DEBF0FBE51
:100C2000CDBFDF91CF911F910F9108951F93CF9367
:100C3000DF93CDB7DEB72C970FB6F894DEBF0FBEAB
:100C4000CDBF86E5898384E38A8382E18B835B98C9
:100C50008AE08C8741E050E0BE01645F7F4F80E214
:100C60000E947C0587E093E0000001970097E1F780
:100C700087E093E0000001970097E1F78FE38B870F
:100C800041E050E0BE01655F7F4F80E20E947C053D
:100C900011E01A8741E050E0BE01665F7F4F82E2BB
:100CA0000E947C0584E0898741E050E0BE01675FD7
:100CB0007F4F81E30E947C05188641E050E0BE0131
:100CC000685F7F4F81E20E947C0587E08F8341E06F
:100CD00050E0BE01695F7F4F85E20E947C051E8364
:100CE00041E050E0BE016A5F7F4F83E20E947C05D5
:100CF00086E08D8341E050E0BE016B5F7F4F86E26E
:100D00000E947C0540E050E060E070E082EE0E94CE
:100D10007C0580E78C8341E050E0BE016C5F7F4F33
:100D200087E20E947C0543E050E0BE016F5F7F4F89
:100D30008AE20E947C055B9A2C960FB6F894DEBF7F
:100D40000FBECDBFDF91CF911F9108958091C0005C
:100D500087FF0EC08091C00087FFFCCF8091C60046
:100D60008093E4018D3639F0823711F40E94C30577
:100D700080E090E008950E94160680E090E00895DB
:100D8000FF920F931F93CF93DF93CDB7DEB72B97CF
:100D90000FB6F894DEBF0FBECDBFF82E8B015B9867
:100DA0008AE08A8741E050E0BE01665F7F4F80E2C3
:100DB0000E947C0527E033E0000021503109211515
:100DC0003105D1F727E033E000002150310921152A
:100DD0003105D1F78EE3898741E050E0BE01675FBE
:100DE0007F4F80E20E947C05188641E050E0BE0102
:100DF000685F7F4F81E20E947C0581E08F8341E044
:100E000050E0BE01695F7F4F83E20E947C051E8235
:100E100041E050E0BE016A5F7F4F84E20E947C05A2
:100E200087E08D8341E050E0BE016B5F7F4F85E23C
:100E30000E947C0586E08C8341E050E0BE016C5F3F
:100E40007F4F86E20E947C0540E050E060E070E069
:100E500081EE0E947C0580E78B8341E050E0BE017B
:100E60006D5F7F4F87E20E947C05FA8241E050E08F
:100E7000BE016E5F7F4F80EA0E947C0543E050E038
:100E8000B80180E30E947C055B9A87E093E0000054
:100E900001970097E1F787E093E000000197009742
:100EA000E1F741E050E0BE01655F7F4F87E00E94BF
:100EB000A40580E6898341E050E0BE016F5F7F4F6B
:100EC00087E20E947C052B960FB6F894DEBF0FBE1A
:100ED000CDBFDF91CF911F910F91FF900895109298
:100EE0007F0190917E0187E69802812D11248595DE
:100EF000859597FD8395809301012AE0829F901943
:100F00001124909302018FEF8093000108951F93A5
:100F1000CF93DF93CDB7DEB7C456D1090FB6F8949F
:100F2000DEBF0FBECDBF90ED980F9A3048F41092FF
:100F300000018F7090917F01992371F09130A9F099
:100F400086E0CC59DF4F0FB6F894DEBF0FBECDBFA1
:100F5000DF91CF911F910895809301018FEF8093CE
:100F6000020181E080937F01EBCF80930201909199
:100F70000101182F2AE0929F100D112410927F0179
:100F800084EC810F8F31E8F08FE591E00E94D0046E
:100F900010927F0190917E0187E69802812D1124A5
:100FA0008595859597FD8395809301012AE0829F21
:100FB00090191124909302018FEF8093000185E036
:100FC000C0CF88E591E00E94D0044AE050E0BE0125
:100FD0006F5F7F4F812F90E00E949B0ECE010196A4
:100FE0000E94D00480E591E00E94D00410937E011D
:100FF0008FEF8093000186E0A4CFCF93DF93CDB72E
:10100000DEB729970FB6F894DEBF0FBECDBF41E023
:1010100050E0BE01675F7F4F87E00E94A40589858D
:1010200086FF24C044E050E0BE016F5F7F4F81E641
:101030000E94A40580E7888741E050E0BE01685F18
:101040007F4F87E20E947C058C810E94870799EC84
:101050009D8397E89E8393E99F8344E050E0BE011F
:101060006B5F7F4F0E94C0060E94160629960FB63E
:10107000F894DEBF0FBECDBFDF91CF9108951F92D0
:101080000F920FB60F9211240BB60F922F933F932E
:101090004F935F936F937F938F939F93AF93BF9380
:1010A000EF93FF930E94FD0781E08CBBFF91EF91CE
:1010B000BF91AF919F918F917F916F915F914F9170
:1010C0003F912F910F900BBE0F900FBE0F901F906E
:1010D0001895CF93DF93CDB7DEB764970FB6F8942A
:1010E000DEBF0FBECDBF8FEF87B918B883E084B9DC
:1010F00015B88DEF81B912E012B98AE08AB985E09E
:101100008BB98CE0E7E0F1E0DE01119601900D92E1
:101110008A95E1F782E390E0A0E0B0E08093D3010C
:101120009093D401A093D501B093D6018CEF90E0B9
:101130009093E0018093DF0188EE93E0A0E0B0E0BF
:101140008093C4019093C501A093C601B093C701D9
:1011500081E195E09093D1018093D00144E650E085
:1011600060E070E04093B5015093B6016093B70121
:101170007093B80186EA96E09093C2018093C10112
:1011800084EF91E0A0E0B0E08093A6019093A701E6
:10119000A093A801B093A9012BE831E03093B301EB
:1011A0002093B20140939701509398016093990165
:1011B00070939A012DEF31E03093A4012093A301A5
:1011C0008093880190938901A0938A01B0938B0149
:1011D00087E690E0909395018093940184B1806BB1
:1011E00084B9269881E58CBD0E94160652985A9AB9
:1011F000E89A1093690078941092CF0980E00E94D9
:101200004F048FE691E00E94D00466E070E0CE01CA
:1012100001960E948A03A0E0B0E0809303019093BE
:101220000401A0930501B09306018BE08093810037
:101230008DE790E0909389008093880082E080930E
:101240006F001092850010928400809103019091AC
:101250000401A0910501B091060180938201909351
:101260008301A0938401B09385018FB780688FBFFD
:1012700088E0E3E1F1E0DE011D9601900D928A9590
:10128000E1F7BE01635F7F4F80E00E94A9020E94E8
:10129000A70180B182708093D30966E070E0CE012F
:1012A00001960E94D702809186018823E1F3109273
:1012B0008601EFCF0F931F93CF93FC0170E020E0E6
:1012C00030E081E090E0A085B185CE9142854F70FD
:1012D0008C0102C0000F111F4A95E2F7C02BCC937E
:1012E000A085B185CC9142854F708C0102C0000F62
:1012F000111F4A95E2F7A80140954C234C9312E048
:101300001A95F1F700C0AC01022E02C0440F551F20
:101310000A94E2F746235723452B91F0A085B18527
:10132000CC9142854F708C0102C0000F111F4A956D
:10133000E2F7A801C02BCC935E91409545234C93D6
:1013400010EA1A95F1F7A085B185CC9142854F70CE
:101350008C0102C0000F111F4A95E2F7A801C02BB3
:10136000CC935E91409545234C932F5F3F4F28309F
:10137000310509F0A8CFCF911F910F910895CF9318
:10138000DF93FC0160E070E080E041E050E0A08588
:10139000B1859E9122852F70EA0102C0CC0FDD1F1E
:1013A0002A95E2F79C2B9C93A085B1859C91228580
:1013B0002F70EA0102C0CC0FDD1F2A95E2F79E01D3
:1013C000209529232C93D2E0DA95F1F700C0A0856F
:1013D000B1859C9122852F70EA0102C0CC0FDD1FE0
:1013E0002A95E2F79E019C2B9C939E9120952923A0
:1013F0002C93DAE1DA95F1F700C0A085B185129758
:101400002C9130E020953095A285AF70EA0102C0A2
:10141000CC0FDD1FAA95E2F72C233D23A1E0B0E01D
:101420001216130614F4A0E0B0E0062E01C0AA0FB5
:101430000A94EAF78A2BD5E8DA95F1F700006F5F96
:101440007F4F6830710509F0A2CFDF91CF910895E9
:10145000FC01A085B1854C9122852F702F5F81E022
:1014600090E0BC0102C0660F771F2A95E2F7462B79
:101470004C93A085B1854E9122852F70BC0102C08E
:10148000660F771F2A95E2F7462B4C93A085B1850E
:101490003C9122852F7001C0880F2A95EAF780952C
:1014A00083238C9389EC93E00197F1F700C000004F
:1014B000A085B1852C9132853F7081E090E001C01C
:1014C000880F3A95EAF7282B2C9390E59A95F1F737
:1014D000A085B1854C9122852F7081E090E0BC0100
:1014E00002C0660F771F2A95E2F79B01462B4C93AB
:1014F0003E91209523232C93A085B18512972C91A2
:1015000030E02095309542854F7002C0880F991FBA
:101510004A95E2F72823392381E0121613063CF49A
:10152000EDE8F3E03197F1F700C00000089580E0A6
:10153000EDE8F3E03197F1F700C0000008959F92C5
:10154000AF92BF92CF92DF92EF92FF920F931F93D1
:10155000CF93DF93CDB7DEB727970FB6F894DEBFF2
:101560000FBECDBF7C010E94280A982E811113C0A6
:10157000892D27960FB6F894DEBF0FBECDBFDF9141
:10158000CF911F910F91FF90EF90DF90CF90BF9080
:10159000AF909F90089563E3C7010E945A09C70165
:1015A0000E94BF09F701878311821282138214827D
:1015B000158216828E010F5F1F4F68015E01F8E0F1
:1015C000AF0EB11CC7010E94BF09F80181938F01C2
:1015D000EA15FB05B9F7F701218132814381548176
:1015E00065817681F801A29180E090E008E00E9498
:1015F000670E2A2BCE16DF06B1F7F701218332835F
:101600004383548365837683C7010E94BF09F70132
:101610008083AECFCF93DF93EC01798768874F70DB
:101620008A85807F842B8A87CE010E94280A8111B7
:1016300004C080E0DF91CF910895CE01DF91CF917A
:101640000C949F0A1F93CF93DF93EC010E94280A0A
:10165000182F882341F06CECCE010E945A0964E4F3
:10166000CE010E945A09812FDF91CF911F910895D9
:10167000CF92DF92EF92FF920F931F93CF93DF935E
:10168000EC010E94BF0981110DC06DEC7CE08FE17F
:1016900094E4DF91CF911F910F91FF90EF90DF9035
:1016A000CF900895CE010E94280A811105C060E004
:1016B00070E08FE793E4EDCF6CECCE010E945A0905
:1016C0006EEBCE010E945A09CE010E94BF09182F6D
:1016D000CE010E94BF09612F772767FD7095607F5B
:1016E0007727759567957595679575956795759540
:1016F000679520E1829FC0011124682B792B8827F0
:1017000077FD8095982F0E94560D6B017C017A859C
:1017100072957F701F70812F992787FD909540E00B
:1017200050E060E0272FC1E0D0E0A4E0B0E00EC0C0
:101730009D01201B310B01C0EE0F2A95EAF76E2B9D
:101740004F5F5F4F272F241B2F3FA9F0022F112738
:1017500007FD1095FE0102C0EE0FFF1F2A95E2F76C
:101760009F0128233923E1E0F0E01216130604F369
:10177000E0E0F0E0DDCF6623B9F0772767FD7095F4
:10178000872F972F0E94560D9B01AC0160E070E0FF
:1017900080E89FE30E94BB0C9B01AC01C701B6012E
:1017A0000E94570C6B017C0126E636E646EE5FE3AD
:1017B000C701B6010E94E20D20E030E040E052E4B3
:1017C0000E94570C66CFCF93DF93EC010E94220B4F
:1017D000CE010E94BF098823D9F3CE01DF91CF91BA
:1017E0000C94380B1F93CF93DF93EC010E940A0BEC
:1017F000811106C010E0812FDF91CF911F910895D4
:10180000CE010E94280A182F8823A1F36CECCE0188
:101810000E945A096EEBCE010E945A09CE010E9425
:10182000BF09CE010E94BF09CE010E94BF09CE01AF
:101830000E94BF09CE010E94BF09807686959A85D5
:101840009F70982B9A87812FDF91CF911F910895D8
:101850000F931F93CF93DF93EC01062F0E94280A6A
:10186000182F8823E9F06CECCE010E945A096EE42F
:10187000CE010E945A0960E0CE010E945A0960E040
:10188000CE010E945A09602F6295660F607ECE01DC
:101890000E945A090295007F8A858F70802B8A8763
:1018A000812FDF91CF911F910F9108955058BB2741
:1018B000AA270ED04DC13ED130F043D120F031F4F3
:1018C0009F3F11F41EF433C10EF4E095E7FB29C1EC
:1018D000E92F4FD180F3BA17620773078407950782
:1018E00018F071F49EF567C10EF4E0950B2EBA2F37
:1018F000A02D0B01B90190010C01CA01A001112416
:10190000FF27591B99F0593F50F4503E68F11A16C1
:10191000F040A22F232F342F4427585FF3CF469552
:1019200037952795A795F0405395C9F77EF41F1674
:10193000BA0B620B730B840BBAF09150A1F0FF0F3E
:10194000BB1F661F771F881FC2F70EC0BA0F621F2A
:10195000731F841F48F4879577956795B795F7951A
:101960009E3F08F0B3CF9395880F08F09927EE0FAC
:101970009795879508950CD0EBC0E3D040F0DAD06E
:1019800030F021F45F3F19F0CCC0511115C1CFC028
:10199000F0D098F39923C9F35523B1F3951B550B58
:1019A000BB27AA2762177307840738F09F5F5F4F32
:1019B000220F331F441FAA1FA9F333D00E2E3AF073
:1019C000E0E830D091505040E695001CCAF729D08D
:1019D000FE2F27D0660F771F881FBB1F26173707DC
:1019E0004807AB07B0E809F0BB0B802DBF01FF270C
:1019F00093585F4F2AF09E3F510568F092C0DCC0BB
:101A00005F3FECF3983EDCF3869577956795B79545
:101A1000F7959F5FC9F7880F911D9695879597F960
:101A20000895E1E0660F771F881FBB1F62177307D9
:101A30008407BA0720F0621B730B840BBA0BEE1FEE
:101A400088F7E095089504D06894B111B5C0089561
:101A500098D088F09F5790F0B92F9927B751A0F0F0
:101A6000D1F0660F771F881F991F1AF0BA95C9F732
:101A700012C0B13081F09FD0B1E008959CC0672FB3
:101A8000782F8827B85F39F0B93FCCF386957795E2
:101A90006795B395D9F73EF49095809570956195CB
:101AA0007F4F8F4F9F4F0895E89409C097FB3EF4F6
:101AB00090958095709561957F4F8F4F9F4F99239B
:101AC000A9F0F92F96E9BB279395F6958795779519
:101AD0006795B795F111F8CFFAF4BB0F11F460FFD9
:101AE0001BC06F5F7F4F8F4F9F4F16C0882311F031
:101AF00096E911C0772321F09EE8872F762F05C045
:101B0000662371F096E8862F70E060E02AF09A95DF
:101B1000660F771F881FDAF7880F9695879597F9D4
:101B2000089597F99F6780E870E060E008959FEF5F
:101B300080EC089500240A94161617061806090664
:101B4000089500240A941216130614060506089533
:101B5000092E0394000C11F4882352F0BB0F40F4BB
:101B6000BF2B11F460FF04C06F5F7F4F8F4F9F4FFB
:101B7000089557FD9058440F551F59F05F3F71F07D
:101B80004795880F97FB991F61F09F3F79F08795E4
:101B90000895121613061406551FF2CF4695F1DF6D
:101BA00008C0161617061806991FF1CF86957105FD
:101BB000610508940895E894BB2766277727CB0131
:101BC00097F908950BD0C4CFB5DF28F0BADF18F02D
:101BD000952309F0A6CFABCF1124EECFCADFA0F337
:101BE000959FD1F3950F50E0551F629FF001729FB2
:101BF000BB27F00DB11D639FAA27F00DB11DAA1FD1
:101C0000649F6627B00DA11D661F829F2227B00D1D
:101C1000A11D621F739FB00DA11D621F839FA00DA8
:101C2000611D221F749F3327A00D611D231F849FF8
:101C3000600D211D822F762F6A2F11249F5750404F
:101C40008AF0E1F088234AF0EE0FFF1FBB1F661FEA
:101C5000771F881F91505040A9F79E3F510570F0A3
:101C600060CFAACF5F3FECF3983EDCF38695779583
:101C70006795B795F795E7959F5FC1F7FE2B880F9E
:101C8000911D9695879597F90895A1E21A2EAA1BA2
:101C9000BB1BFD010DC0AA1FBB1FEE1FFF1FA2171C
:101CA000B307E407F50720F0A21BB30BE40BF50B19
:101CB000661F771F881F991F1A9469F760957095A2
:101CC000809590959B01AC01BD01CF0108950F93C4
:101CD000083090F0982F872F762F652F542F432FA1
:101CE000322F22270850F4CF220F331F441F551FD5
:101CF000661F771F881F991F0A95B2F70F910895E5
:101D0000FB01DC0102C001900D9241505040D8F718
:101D100008956817790768F4FB01DC01E40FF51FEB
:101D2000A40FB51F02C002900E9241505040D8F748
:101D300008950C94800EFB019F01E8944230C4F09A
:101D40004532B4F44A3029F497FB1EF490958195FE
:101D50009F4F642F77270E94CC0E805D8A330CF052
:101D6000895D8193CB010097A1F716F45DE2519351
:101D70001082C9010C94BC0EDC01FC01672F71912B
:101D80007723E1F7329704C07C916D937083629161
:101D9000AE17BF07C8F30895AA1BBB1B51E107C0CC
:101DA000AA1FBB1FA617B70710F0A61BB70B881FEB
:101DB000991F5A95A9F780959095BC01CD0108957A
:041DC000F894FFCFC5
:101DC400FFFFFF01000000A5019601D201C301B489
:101DD400018701040A041F04040A11496E69746925
:101DE400616C697A696E6700523A0054656D703AA5
:101DF40000460052656D6F74652054696D656F759A
:101E040074200A0D0053656E642062797465212084
:101E14000A0D00526567200054656D703A20004930
:101E24006E76616C69642054656D702E0A0D004DE8
:0E1E340061737465722073746172740A0D001C
:00000001FF
