:100000000C9446000C9465000C9465000C946500FB
:100010000C9465000C9465000C9465000C946500CC
:100020000C9465000C9465000C9465000C946500BC
:100030000C9465000C9408030C9465000C94650006
:100040000C9465000C9465000C9465000C9465009C
:100050000C9465000C9465000C9465000C9465008C
:100060000C9465000C9465000C9465000C9465007C
:100070000C9465000C9465000C9465000C9465006C
:100080000C9465000C9465000C94650011241FBE4F
:10009000CFEFD0E4DEBFCDBF11E0A0E0B1E0E8E8F3
:1000A000F2E100E00BBF02C007900D92A432B1074D
:1000B000D9F711E0A4E2B1E001C01D92A536B10765
:1000C000E1F70E9444030C9442090C9400001816B6
:1000D000190684F440E050E027E033E000002150AE
:1000E000310921153105D1F74F5F5F4F4817590787
:1000F00099F708950895289888B9299A00002998B1
:1001000087E093E0000001970097E1F787E093E034
:10011000000001970097E1F70895CF93DF93EC017A
:100120008881882351F0882319F0DF91CF910895B9
:1001300081E08883DF91CF91089581E00E947B0068
:100140008881F1CF81E00C947B0024E630E087E0E9
:1001500093E0000001970097E1F721503109211544
:100160003105A9F788E30E947B0086E00E947B00AE
:100170008FE00E947B0081E00E947B008CE00E9467
:100180007B002AE030E087E093E0000001970097D1
:10019000E1F72150310921153105A9F70895289A71
:1001A00088B9299A0000299887E093E00000019718
:1001B0000097E1F70895813118F081550C947B0088
:1001C00081580C947B001F93CF93DF93FB019081A8
:1001D000992369F0EB0101C0812F11E0180F0E94F3
:1001E000DB0089910E94CF0088818111F5CFDF91DA
:1001F000CF911F9108951F93CF93DF93EC018881D6
:10020000882309F45CC0813039F0882309F44CC09C
:10021000DF91CF911F9108958091630181116DC08D
:10022000129869E171E080E10E94E3006BE171E006
:1002300081E10E94E30084E591E00E9460060E9453
:10024000A007DC01CB0190935301809352014AE057
:1002500050E068E471E00E94FD0886E18093470168
:1002600085EC0E947B0080914801882379F010E0A2
:100270000E94CF0087E1810F809347011F5FE12F2C
:10028000F0E0E85BFE4F80818111F2CF61E271E026
:1002900088E10E94E30088EC0E947B008FED0E94C1
:1002A000CF0088818111B4CF80915F01833308F43E
:1002B000AFCF81E08883DF91CF911F9108958CE0CB
:1002C00091E0909361018093600180915F0183339D
:1002D00080F010925F0140E062E270E084E591E01E
:1002E0000E946F0661E084E591E00E94A506888186
:1002F0008CCF8F5F80935F01EECF129A8FE80E94C0
:100300007B0080E00E94CF0091CFEF92FF921F937D
:10031000CF93DF9300D0CDB7DEB7883040F00F9099
:100320000F90DF91CF911F91FF90EF900895880F6C
:10033000880F880F805C69837A830E947B006981C3
:10034000E62E7A81F72E18E0F70181917F010E9455
:10035000CF001150C9F70F900F90DF91CF911F91EF
:10036000FF90EF90089521E030E0062E01C0220FAB
:100370000A94EAF7411104C020952823822F08959A
:10038000282B822F089521E030E0062E01C0220F95
:100390000A94EAF7822308958F929F92AF92BF92B8
:1003A000CF92DF92EF92FF920F931F93CF93DF9341
:1003B0006C017B016115710509F43FC0C0E0D0E01C
:1003C00000E010E010C04F5F5F4F6F4F7F4F1996F6
:1003D0004D935D936D937C931C970F5F1F4FE801C6
:1003E0000E151F0551F1CC0FDD1FCC0DDD1DA881B1
:1003F000B98119964D915D916D917C911C971596DF
:100400008D909D90AD90BC901897481559056A0540
:100410007B05C8F21D96ED91FC911E97CD010995C3
:10042000A881B98119961D921D921D921C921C974C
:1004300041E050E060E070E0CACFDF91CF911F91C2
:100440000F91FF90EF90DF90CF90BF90AF909F9073
:100450008F900895AF92BF92CF92DF92EF92FF926A
:100460000F931F93CF93DF937C018B01611571056F
:1004700009F43FC0DC01ED91FC9161307105E1F1BF
:10048000C180D280A380B48081E090E0C1E0D0E060
:10049000FC01EE0FFF1FEE0DFF1D0190F081E02D1E
:1004A0005181428133812481652F742F832F922FB4
:1004B0009601A5010E94C20861157105810591058B
:1004C00039F05C2D4D2D3A2D2B2D6B015C01ECCFBD
:1004D0002196CE01C017D107D9F6C601DF91CF9181
:1004E0001F910F91FF90EF90DF90CF90BF90AF9052
:1004F000089580E090E0F2CF81819281EFCF4F921A
:100500005F926F927F92AF92BF92CF92DF92EF9203
:10051000FF920F931F93CF93DF936C017B010E9497
:100520002A025C01E114F10439F12C01612C712CD7
:10053000E0E0F0E0C0E0D0E0EE0FFF1FEC0DFD1DAD
:10054000A081B1811C9200811181F80161817281C9
:1005500083819481A30192010E94C208F80125833E
:100560003683478350872187328743875487219674
:10057000FE01CE15DF0501F7C501DF91CF911F9177
:100580000F91FF90EF90DF90CF90BF90AF907F9052
:100590006F905F904F9008956093000170930101F8
:1005A00080930201909303016093240170932501CD
:1005B000809326019093270108958BE0809381001A
:1005C0008DE790E0909389008093880082E080938B
:1005D0006F0010928500109284008091000190912C
:1005E0000101A0910201B091030180932401909335
:1005F0002501A0932601B09327018FB780688FBF94
:10060000089510928100089581E080932801089553
:100610001F920F920FB60F9211248F939F93AF9357
:10062000BF938091240190912501A0912601B09162
:1006300027010197A109B109809324019093250115
:10064000A0932601B0932701892B8A2B8B2B99F439
:1006500081E0809328018091000190910101A09197
:100660000201B09103018093240190932501A0938E
:100670002601B0932701BF91AF919F918F910F9069
:100680000FBE0F901F901895CF93DF93CDB7DEB7B5
:100690002C970FB6F894DEBF0FBECDBF8FEF87B992
:1006A00018B884B915B88DEF81B912E012B988E392
:1006B00091E09A87898789E291E09C878B8784EF14
:1006C00091E0A0E0B0E08093390190933A01A093CB
:1006D0003B01B0933C018DE890E0909346018093FC
:1006E000450184E690E0A0E0B0E080932A01909379
:1006F0002B01A0932C01B0932D018BEF90E09093F0
:1007000037018093360162E070E0CE0109960E94C5
:100710007F02A0E0B0E08093000190930101A093DC
:100720000201B09303018BE0809381008DE790E09C
:10073000909389008093880010936F001092850039
:10074000109284008091000190910101A09102011A
:10075000B09103018093240190932501A093260179
:10076000B09327018FB780688FBF88E0E4E0F1E0A5
:10077000DE01119601900D928A95E1F7BE016F5F3F
:100780007F4F80E00E9485010E94A50080B18270A9
:100790008093630162E070E0CE0109960E94CC0173
:1007A000809128018823E1F310922801EFCF0F9365
:1007B0001F93CF93FC0170E020E030E081E090E0F7
:1007C000A085B185CE9142854F708C0102C0000F8B
:1007D000111F4A95E2F7C02BCC93A085B185CC912F
:1007E00042854F708C0102C0000F111F4A95E2F73D
:1007F000A80140954C234C9312E01A95F1F700C0E4
:10080000AC01022E02C0440F551F0A94E2F74623A2
:100810005723452B91F0A085B185CC9142854F702F
:100820008C0102C0000F111F4A95E2F7A801C02BEE
:10083000CC935E91409545234C9310EA1A95F1F7BD
:10084000A085B185CC9142854F708C0102C0000F0C
:10085000111F4A95E2F7A801C02BCC935E914095F9
:1008600045234C932F5F3F4F2830310509F0A8CF27
:10087000CF911F910F910895CF93DF93FC0160E01A
:1008800070E080E041E050E0A085B1859E91228536
:100890002F70EA0102C0CC0FDD1F2A95E2F79C2BD6
:1008A0009C93A085B1859C9122852F70EA0102C09E
:1008B000CC0FDD1F2A95E2F79E01209529232C936A
:1008C000D2E0DA95F1F700C0A085B1859C91228530
:1008D0002F70EA0102C0CC0FDD1F2A95E2F79E01BE
:1008E0009C2B9C939E91209529232C93DAE1DA95F9
:1008F000F1F700C0A085B18512972C9130E02095CA
:100900003095A285AF70EA0102C0CC0FDD1FAA9519
:10091000E2F72C233D23A1E0B0E01216130614F4F5
:10092000A0E0B0E0062E01C0AA0F0A94EAF78A2BD5
:10093000D5E8DA95F1F700006F5F7F4F68307105F9
:1009400009F0A2CFDF91CF910895FC01A085B18578
:100950004C9122852F702F5F81E090E0BC0102C096
:10096000660F771F2A95E2F7462B4C93A085B18539
:100970004E9122852F70BC0102C0660F771F2A9509
:10098000E2F7462B4C93A085B1853C9122852F70D0
:1009900001C0880F2A95EAF7809583238C9389EC10
:1009A00093E00197F1F700C00000A085B1852C917C
:1009B00032853F7081E090E001C0880F3A95EAF7F8
:1009C000282B2C9390E59A95F1F7A085B1854C9151
:1009D00022852F7081E090E0BC0102C0660F771F76
:1009E0002A95E2F79B01462B4C933E9120952323B9
:1009F0002C93A085B18512972C9130E020953095ED
:100A000042854F7002C0880F991F4A95E2F728234C
:100A1000392381E0121613063CF4EDE8F3E0319738
:100A2000F1F700C00000089580E0EDE8F3E03197B1
:100A3000F1F700C0000008959F92AF92BF92CF924D
:100A4000DF92EF92FF920F931F93CF93DF93CDB777
:100A5000DEB727970FB6F894DEBF0FBECDBF7C017F
:100A60000E94A504982E811113C0892D27960FB6D8
:100A7000F894DEBF0FBECDBFDF91CF911F910F91D4
:100A8000FF90EF90DF90CF90BF90AF909F90089530
:100A900063E3C7010E94D703C7010E943C04F7012A
:100AA00087831182128213821482158216828E012C
:100AB0000F5F1F4F68015E01F8E0AF0EB11CC70168
:100AC0000E943C04F80181938F01EA15FB05B9F7F8
:100AD000F701218132814381548165817681F8015A
:100AE000A29180E090E008E00E94E4082A2BCE1654
:100AF000DF06B1F7F7012183328343835483658393
:100B00007683C7010E943C04F7018083AECFCF9368
:100B1000DF93EC01798768874F708A85807F842B0B
:100B20008A87CE010E94A504811104C080E0DF9174
:100B3000CF910895CE01DF91CF910C941C051F93A6
:100B4000CF93DF93EC010E94A504182F882341F076
:100B50006CECCE010E94D70364E4CE010E94D7035F
:100B6000812FDF91CF911F910895CF92DF92EF9265
:100B7000FF920F931F93CF93DF93EC010E943C04ED
:100B800081110DC06DEC7CE08FE194E4DF91CF9199
:100B90001F910F91FF90EF90DF90CF900895CE01BD
:100BA0000E94A504811105C060E070E08FE793E426
:100BB000EDCF6CECCE010E94D7036EEBCE010E940C
:100BC000D703CE010E943C04182FCE010E943C04A2
:100BD000612F772767FD7095607F772775956795FB
:100BE00075956795759567957595679520E1829FD1
:100BF000C0011124682B792B882777FD8095982FC9
:100C00000E94D3076B017C017A8572957F701F70FB
:100C1000812F992787FD909540E050E060E0272FD5
:100C2000C1E0D0E0A4E0B0E00EC09D01201B310B7C
:100C300001C0EE0F2A95EAF76E2B4F5F5F4F272F0B
:100C4000241B2F3FA9F0022F112707FD1095FE014D
:100C500002C0EE0FFF1F2A95E2F79F0128233923D8
:100C6000E1E0F0E01216130604F3E0E0F0E0DDCF7F
:100C70006623B9F0772767FD7095872F972F0E941D
:100C8000D3079B01AC0160E070E080E89FE30E9425
:100C900038079B01AC01C701B6010E94D4066B0165
:100CA0007C0126E636E646EE5FE3C701B6010E9408
:100CB0005F0820E030E040E052E40E94D40666CFB6
:100CC000CF93DF93EC010E949F05CE010E943C046C
:100CD0008823D9F3CE01DF91CF910C94B5051F93F2
:100CE000CF93DF93EC010E948705811106C010E0CD
:100CF000812FDF91CF911F910895CE010E94A5040D
:100D0000182F8823A1F36CECCE010E94D7036EEB61
:100D1000CE010E94D703CE010E943C04CE010E9466
:100D20003C04CE010E943C04CE010E943C04CE0152
:100D30000E943C04807686959A859F70982B9A87AE
:100D4000812FDF91CF911F9108950F931F93CF9320
:100D5000DF93EC01062F0E94A504182F8823E9F0E9
:100D60006CECCE010E94D7036EE4CE010E94D70343
:100D700060E0CE010E94D70360E0CE010E94D7035D
:100D8000602F6295660F607ECE010E94D7030295A8
:100D9000007F8A858F70802B8A87812FDF91CF918A
:100DA0001F910F9108955058BB27AA270ED04DC10F
:100DB0003ED130F043D120F031F49F3F11F41EF4C6
:100DC00033C10EF4E095E7FB29C1E92F4FD180F341
:100DD000BA17620773078407950718F071F49EF538
:100DE00067C10EF4E0950B2EBA2FA02D0B01B901AF
:100DF00090010C01CA01A0011124FF27591B99F091
:100E0000593F50F4503E68F11A16F040A22F232F9C
:100E1000342F4427585FF3CF469537952795A795EC
:100E2000F0405395C9F77EF41F16BA0B620B730B93
:100E3000840BBAF09150A1F0FF0FBB1F661F771F04
:100E4000881FC2F70EC0BA0F621F731F841F48F4B9
:100E5000879577956795B795F7959E3F08F0B3CF3F
:100E60009395880F08F09927EE0F97958795089529
:100E70000CD0EBC0E3D040F0DAD030F021F45F3F8B
:100E800019F0CCC0511115C1CFC0F0D098F39923FF
:100E9000C9F35523B1F3951B550BBB27AA2762173E
:100EA0007307840738F09F5F5F4F220F331F441F83
:100EB000AA1FA9F333D00E2E3AF0E0E830D09150BB
:100EC0005040E695001CCAF729D0FE2F27D0660FA8
:100ED000771F881FBB1F261737074807AB07B0E8E7
:100EE00009F0BB0B802DBF01FF2793585F4F2AF0FD
:100EF0009E3F510568F092C0DCC05F3FECF3983E26
:100F0000DCF3869577956795B795F7959F5FC9F759
:100F1000880F911D9695879597F90895E1E0660FE2
:100F2000771F881FBB1F621773078407BA0720F05B
:100F3000621B730B840BBA0BEE1F88F7E0950895C4
:100F400004D06894B111B5C0089598D088F09F5727
:100F500090F0B92F9927B751A0F0D1F0660F771F05
:100F6000881F991F1AF0BA95C9F712C0B13081F0E5
:100F70009FD0B1E008959CC0672F782F8827B85F75
:100F800039F0B93FCCF3869577956795B395D9F746
:100F90003EF490958095709561957F4F8F4F9F4F50
:100FA0000895E89409C097FB3EF49095809570955C
:100FB00061957F4F8F4F9F4F9923A9F0F92F96E9A5
:100FC000BB279395F695879577956795B795F1111A
:100FD000F8CFFAF4BB0F11F460FF1BC06F5F7F4FB7
:100FE0008F4F9F4F16C0882311F096E911C07723C9
:100FF00021F09EE8872F762F05C0662371F096E8D2
:10100000862F70E060E02AF09A95660F771F881FA0
:10101000DAF7880F9695879597F9089597F99F675E
:1010200080E870E060E008959FEF80EC0895002470
:101030000A941616170618060906089500240A943D
:1010400012161306140605060895092E0394000CC3
:1010500011F4882352F0BB0F40F4BF2B11F460FF52
:1010600004C06F5F7F4F8F4F9F4F089557FD90587B
:10107000440F551F59F05F3F71F04795880F97FB5C
:10108000991F61F09F3F79F0879508951216130616
:101090001406551FF2CF4695F1DF08C01616170645
:1010A0001806991FF1CF869571056105089408957A
:1010B000E894BB2766277727CB0197F908950BD0D3
:1010C000C4CFB5DF28F0BADF18F0952309F0A6CF1A
:1010D000ABCF1124EECFCADFA0F3959FD1F3950FCC
:1010E00050E0551F629FF001729FBB27F00DB11DAC
:1010F000639FAA27F00DB11DAA1F649F6627B00D3C
:10110000A11D661F829F2227B00DA11D621F739F24
:10111000B00DA11D621F839FA00D611D221F749F32
:101120003327A00D611D231F849F600D211D822F79
:10113000762F6A2F11249F5750408AF0E1F08823C0
:101140004AF0EE0FFF1FBB1F661F771F881F9150CD
:101150005040A9F79E3F510570F060CFAACF5F3F86
:10116000ECF3983EDCF3869577956795B795F79500
:10117000E7959F5FC1F7FE2B880F911D9695879588
:1011800097F90895A1E21A2EAA1BBB1BFD010DC001
:10119000AA1FBB1FEE1FFF1FA217B307E407F50727
:1011A00020F0A21BB30BE40BF50B661F771F881F03
:1011B000991F1A9469F760957095809590959B0199
:1011C000AC01BD01CF0108950F93083090F0982F26
:1011D000872F762F652F542F432F322F2227085029
:1011E000F4CF220F331F441F551F661F771F881F20
:1011F000991F0A95B2F70F910895FB019F01E8949A
:101200004230C4F04532B4F44A3029F497FB1EF45E
:10121000909581959F4F642F77270E942E09805DBE
:101220008A330CF0895D8193CB010097A1F716F406
:101230005DE251931082C9010C941E09DC01FC018E
:10124000672F71917723E1F7329704C07C916D93FA
:1012500070836291AE17BF07C8F30895AA1BBB1B2A
:1012600051E107C0AA1FBB1FA617B70710F0A61BA6
:10127000B70B881F991F5A95A9F780959095BC01C7
:08128000CD010895F894FFCFA1
:1012880001000000040A041F04040A11496E69746D
:1012980069616C697A696E6700200054656D703AFF
:0412A80000460000FC
:00000001FF
